:020000040000FA
:1000000000400020B5960100F1960100F396010032
:1000100000000000000000000000000000000000E0
:10002000000000000000000000000000F596010044
:100030000000000000000000F7960100F9960100A2
:10004000FB960100DD720000F99D0100FB960100A6
:10005000FB96010000000000B5970100FB9601002F
:100060005128010069A301006D9C0100FB9601006D
:10007000FB960100FB960100FB960100FB96010038
:10008000FB960100FB960100FB960100FB96010028
:10009000FB960100359401004D9301008D2901006C
:1000A0009D290100FB9601000000000000000000F7
:1000B0000000000000000000000000000000000040
:1000C00010B5064C2378002B07D1054B002B02D02E
:1000D000044800E000BF0123237010BD2001002070
:1000E00000000000A8A40300044B10B5002B03D0AF
:1000F0000349044800E000BF10BDC04600000000F6
:1001000024010020A8A40300164B002B00D1144B9F
:100110009D46402292029A1A924600218B460F4633
:100120001348144A121A2AF0FFFA0F4B002B00D082
:1001300098470E4B002B00D0984700200021040068
:100140000D000D48002802D00C4800E000BF22F04E
:10015000A7F8200029002AF03DF821F0EDFFC04665
:100160000000080000400020000000000000000027
:1001700018010020E42F0020000000000000000013
:1001800010B50400064905F007FDA0220C21637993
:10019000D205C133FF339B000248995010BDC046C1
:1001A0000CC90200D8C7020070B50E4C0E492000E1
:1001B00005F0F2FC6279A02311000C20A225C131C8
:1001C000FF31DB058900C850ED0059590124D140A9
:1001D0000648214204D05B59D340234200D0044852
:1001E00070BDC04600D8020014C9020070AD020004
:1001F00078AD020070B50E4C0E49200005F0CCFC25
:100200006279A02311000C20A225C131FF31DB054A
:100210008900C850ED0059590124D14006482142B7
:1002200004D05B59D340234200D0044870BDC0467F
:10023000F8D7020014C9020070AD020078AD0200C8
:1002400070B5354C3549200005F0A6FC6279A02434
:10025000130003210125C133FF33E4059B0019512D
:100260002B0093402E4A0220A3500138C046C046BE
:10027000C046C046C046C046C046C046C046C0464E
:10028000C046C046F1D1A121C90063500F200138FA
:10029000C046C046C046C046C046C046C046C0462E
:1002A000C046C046C046C046F1D11E4EA3501E49AE
:1002B000300005F071FC727904211300C133FF3363
:1002C0009B001951A22100239540184AC90060588B
:1002D000054204D101339342F9D1154812E0A0211F
:1002E000A2240020134AC905E4000E59354202D069
:1002F00001309042F9D1104A934206D866211AF093
:1003000061F9013825F0E0FC70BD0C4A9342E4D855
:1003100064211AF057F9F5E710D802001CC9020051
:100320000C05000008D8020014C9020011270000C3
:10033000E7030000410D0300AF0400008713000035
:1003400037B50B4C0B49200005F026FC052168460B
:100350006156A02419F0D2F90123074DE4002B5176
:10036000684619F0F1F900232B5125F0ADFC3EBD94
:1003700020D802000CC90200007000400748084B5A
:1003800010B518601E23037100230649437119F04C
:1003900079F80A202AF018F8034810BD442B0020F1
:1003A0003C010020A0860100D8C702001FB5012330
:1003B00003AC2370002360700548A170E2700093C5
:1003C000220004330221006817F008FC04B010BDBD
:1003D0003C01002070B50C00160006F035FB05004E
:1003E000200006F031FB0400300006F02DFBFF2D4D
:1003F00000DDFF252100FF2C00DDFF21FF22FF286B
:1004000002DCC243D2170240C843C0170140E84390
:10041000C0172840D2B2C9B2C0B2FFF7C7FF014827
:1004200070BDC046D8C7020030B585B006283FD899
:10043000002914DA00210024002A03DB1400FF2A1B
:1004400000DDFF24022302AA0138137000230528CF
:1004500009D81D001AF0A2F8151A1F232629FF2912
:10046000E9DDFF21E7E753709370D3701371002328
:100470001148009302210533006817F0AFFB05B067
:1004800030BD51709370D4701571F0E75370917056
:10049000D3701471EBE753709370D470E6E751702A
:1004A0005380F1E753709170F7E751705380F0E794
:1004B00001204042E3E7C0463C01002070B50C003B
:1004C000160006F0C1FA0500200006F0BDFA04008F
:1004D000300006F0B9FA0600002D08DD0120002CDE
:1004E0000CDC0420002C09D06442062006E0002D1C
:1004F0000FD0002C12DA02206D4264422200290043
:10050000FFF792FF002E02DD300025F025FE0648A1
:1005100070BD0320002CF1DC2800EFE7201EEDD099
:100520006D420520EAE7C046D8C70200002210B598
:1005300011001000FFF778FF004810BDD8C7020077
:1005400070B50D0001280AD1086806F07DFA040094
:10055000020021000620FFF767FF084870BD02284F
:1005600008D1086806F070FA0400686806F06CFAB2
:100570000200EEE700221400EBE7C046D8C70200F5
:1005800070B50D0001280AD1086806F05DFA040074
:10059000020021000520FFF747FF084870BD022830
:1005A00008D1086806F050FA0400686806F04CFAB2
:1005B0000200EEE700221400EBE7C046D8C70200B5
:1005C00010B506F041FA010002000420FFF72CFFED
:1005D000004810BDD8C7020010B506F035FA01007A
:1005E00002000320FFF720FF004810BDD8C702001B
:1005F00070B50D0001280AD1086806F025FA04003C
:10060000020021000220FFF70FFF084870BD0228FA
:1006100008D1086806F018FA0400686806F014FAB1
:100620000200EEE700221400EBE7C046D8C7020044
:1006300070B50D0001280AD1086806F005FA04001B
:10064000020021000120FFF7EFFE084870BD0228DC
:1006500008D1086806F0F8F90400686806F0F4F9B3
:100660000200EEE700221400EBE7C046D8C7020004
:100670000023F7B5344C05001A00A446334F8B42D3
:100680000ED02C88324E0133A419A4B29BB264451B
:1006900004D80226AC5FBC4200DC1A000235EEE74B
:1006A00011001E3199424DDA0025FA272C00520024
:1006B0008618BF000022B35EBB4209DD28001CF093
:1006C000FFFE0B0080210200C90500201DF0B0FBD9
:1006D0002022B35EBB4215DD28001CF0F1FE0B00AA
:1006E00080210200C90500201DF0A2FB00900191AD
:1006F00020001CF0ABFE009A019B1BF091F91AF050
:1007000087F984B20135ADB20236102DD2D164BA68
:10071000A4B2104B22011A400F4B24111C4022435B
:1007200092B20E4993000B400D4992100A401343B8
:100730009BB20C4A580010400B4A5B101340184300
:1007400080B2FEBD0948FCE7CE070000CF070000DD
:1007500047F4FFFFF0F0FFFF0F0F0000CCCCFFFFCE
:1007600033330000AAAAFFFF55550000FFFF000029
:10077000802230B5C1B0050052000021684629F042
:10078000D3FF00240E4A6879012128F0ADF80D4B03
:1007900082B29A420AD06A46631C640010539CB22B
:1007A000F0E70120404225F08FFA07E0032CF8D94A
:1007B00021006846FFF75CFF25F0A1FA41B030BD8B
:1007C000A0860100FFFF0000054B10B5186828F057
:1007D00044FC044B002800D1034B180010BDC04658
:1007E000C42A002078AD020070AD020010B5034BA2
:1007F000186828F03AFC024810BDC046C42A002000
:10080000D8C7020010B5034B186828F09CFC25F0EF
:100810005BFA10BDC42A002010B5034B186828F0FD
:1008200099FC25F051FA10BDC42A002010B5034BE5
:10083000186828F096FC25F047FA10BDC42A00205D
:1008400010B5034B186828F041FC25F03DFA10BDA7
:10085000C42A002030B593B011F098FF184C200046
:1008600029F041F8174D286816F0CCFC200029F03B
:100870003FF811F07BFF22F0D3FF22F0C5FA04000D
:10088000296803A828F0DFFB0F4B20000A93039B85
:100890000B93049B0C93059B0D93069B0E93079B58
:1008A0000F93089B1093099B0193119322F0C4FEB0
:1008B000200020220AA901F0F5FE044813B030BD43
:1008C000CC2A0020C42A002055BA11C0D8C7020083
:1008D000F8B5114D0400286828F0BFFB002802D1AC
:1008E0002000FFF7B7FF0D4B1B78002B0DD10C4EEE
:1008F0003478E4B2002C08D10127286837700368E7
:100900005B689847054B34701F70286816F056FDD9
:1009100025F0DAF9F8BDC046C42A0020CA2D00200F
:10092000CB2D0020F0B58DB022F06EFA0E4B026890
:100930009A4217D104694168089444698268C3687F
:1009400009948469C0690A9484466C4605910692AC
:10095000079308A8E0C8E0C4604620600348006828
:1009600028F05BFB0DB0F0BD55BA11C0C42A0020C1
:1009700070B5050000291CDB032905D808000024F8
:1009800019F00CFE181806060123023999430C00D1
:10099000FE26B52109023143280022F043FA002C3B
:1009A00004D005492800214322F03CFAAE61EC61F5
:1009B00070BD0024F226ECE780B00000F8B5124AC2
:1009C0000E00124B124990421AD0C4688C4203D0D8
:1009D000012430602000F8BD406B002812D004686C
:1009E0009C42F0D10500002447680835BF00EF198C
:1009F000BD42EFD2310001CDFFF7E0FF2418F7E749
:100A00000024E7E70400E5E70CFB020020DF02001A
:100A1000050B0000F7B505000C00AB68002B0AD0F1
:100A2000344AE168914206D0E358002B03D00422F7
:100A3000EB681A60F7BDA06B002820D06B6804300B
:100A4000D90006230022194301F062FA002816D0CB
:100A5000297C4268EB682868002904D00100002046
:100A600013F0E6FFE6E7002807D02249E5688D424B
:100A700003D021498C4200D000692100F0E72B68A7
:100A8000002B16D1646B002CD4D01C4B22681A4F5B
:100A90009A420BD126006368194A08369B189B00BE
:100AA000F3180193019B34689E4216D3BC42B4D123
:100AB000C0E72A7C002AE5D10E4AE1689142E1D0E4
:100AC0000D4A9442DED01869EA68696814F00AF8A1
:100AD000EB681B68002BD5D0ACE7BC4201D10436D3
:100AE000E0E721002800FFF795FFEB681B68002B6B
:100AF000F5D09FE7050B00000CFB020020DF020091
:100B0000FFFFFF3FF0B58FB00E0005A901920293E1
:100B10000700FFF753FF041DA400200025F00CF888
:100B20000500002180C022F0A9FC22002800103A14
:100B30001030002129F0F8FD012E05D1029B1B6821
:100B40000393042B00D187E007AC0822002120008A
:100B500029F0EAFD0023424A09A84260FF3AFF3A21
:100B600039008260C46003740993FFF753FF07984C
:100B700004282ED10598029BC468019A3100A04731
:100B80002861280005F078FEB84265D10023354A77
:100B9000390009A8089307930B9309950A92FFF768
:100BA00039FF079B002B57D00198304336D107AA55
:100BB000010026F06FFF04002B4B9C424CD020001C
:100BC00023F09FFC29490200294801F0C5F80DF0E7
:100BD00091FD0028D5D0019A324306D106AB012100
:100BE000069713F007FF0500CBE7019B5D00AD19E9
:100BF0000135AD00280024F09FFF2A1F03900299C1
:100C000080C029F075FD711C039B019A206813F0C8
:100C1000F1FE0500039824F0BEFFB2E7019B5C00E3
:100C2000A4190234A400200024F086FF220007004B
:100C3000079B029903600393089B083A43600830BE
:100C400029F056FD3A000199300026F023FF0400F8
:100C5000380024F0A0FFAFE728000FB0F0BDC04679
:100C60000A02000002020000D8C70200F3170300C6
:100C7000ACB60200F0B5146889B01700002C0ED194
:100C8000436803AD82686960596B0392AC60EF60A2
:100C90002C74002905D111492800FFF7BBFE09B0CB
:100CA000F0BD0F4B0A689A4210D14B6808310E0014
:100CB0000193019B9C42EED0A300F1582800FFF75E
:100CC000A9FE3B68002BEAD10134F2E72800FFF7C8
:100CD000A1FE3B68002BE2D1DDE7C0460CFB020021
:100CE00020DF020010B54A68014924F01AFF10BD48
:100CF000F0180300F0B58BB005000E0014000021C1
:100D00000822684629F010FD0021102206A829F0CB
:100D10000BFD202307936B46059508932968FC2358
:100D2000002C02D0042C10D1FF235B0005A80693F1
:100D3000FFF770FE0221009F042F0DD12200310029
:100D4000286906F009F80BB0F0BD0A4B05A8069318
:100D5000FFF760FE0321EEE7381EF4D002AB00225D
:100D600002950396049413F045FE042CEBD0024840
:100D7000E9E7C04611020000D8C70200F0B5204BD9
:100D80008BB08200D35803AF0C000822002106006C
:100D90003800019329F0C8FC019B05AD6B6014235A
:100DA000AB600023280021680594EF602B74FFF7E7
:100DB00031FE0398042805D12169300013F0A8FD05
:100DC0000BB0F0BD00280AD0210026F05BFE022EF9
:100DD000F6D105F065FE440001202043F0E7022E25
:100DE00001D00020ECE7FD2321685B0028006B6048
:100DF000FFF710FE3B68002BF3D16400ECE7C04620
:100E000018AD0200F0B556425641032376428BB02E
:100E10001E40294B0C0001900021170003A8082256
:100E2000F61829F081FC0823079303AB08930023ED
:100E300005AD216828002B7405940696FFF7EAFD9E
:100E4000039B002B08D1002F06D11B4B21682800E3
:100E50006B60AF60FFF7DEFD039804281AD12069AC
:100E600005F00AFD154BC2689A4211D1002F07D038
:100E70002368586823F024FB0100019824F090FDBA
:100E800080223A432169019805F00EFD0BB0F0BDB8
:100E90003A00F7E7002805D0210026F0F3FD0022F4
:100EA0000100F0E7200023F02CFB2300020004499E
:100EB000019824F036FEE9E70F0200001D1C000037
:100EC000A217030070B504000D000B4924F068FD63
:100ED00069680022200005F0E7FC0849200024F0A2
:100EE0005FFDA9680022200005F0DEFC0449200017
:100EF00024F056FD70BDC046AB180300B4180300C3
:100F0000FB18030010B5C468002C06D142680449E0
:100F1000044800F021FF0DF0EDFBA04710BDC046D6
:100F2000B7180300ACB60200F0B50400002589B084
:100F300001AE08220F003000002129F0F5FB104B14
:100F400003A84360E03BFF3B21688360C6600574F3
:100F50000394FFF75FFD019B1800AB4208D0042B00
:100F600008D1206905F088FC3900436A2069984758
:100F700009B0F0BD32002900280026F08BFDF7E70C
:100F800003020000F0B5154B89B016008200D55859
:100F90000C000C2200210700684629F0C5FB18232D
:100FA00003A84560836000256B462168C3600394F5
:100FB0000574FFF72FFD009B042B06D13200216939
:100FC000380014F049FA09B0F0BD181EFBD06A468B
:100FD00029000120029626F05DFDF4E790AB0200A7
:100FE000F0B51700F6228DB004000393002307A884
:100FF000FF324260E63A05ADFF3A0E00216882609A
:10100000C560037405936B600794FFF703FD0598B3
:10101000002809D1200023F074FA0C4902000C4882
:1010200000F09AFE0DF066FB039B042806D13A00FF
:101030003100206913F0DEFC0DB0F0BD00933200EA
:101040003B00696826F04EFAF6E7C046D717030062
:10105000ACB60200F0B50D0085B001A9070016007E
:10106000280002AA24F0BBFD0023019902989942AE
:101070002CD13C2024F072FD2A4B019A03602A4BAC
:1010800004008360294B4760C360294B0361294BEF
:101090004361294B8361294BC361294B0362294B6F
:1010A0004362294BC362002A06D0029B1968096B70
:1010B0000163012A18D94563A66303A92000FFF73D
:1010C0007DFC012813D9214814F082FB9A00825834
:1010D000D468002C06D152681D491E4800F03CFE21
:1010E0000DF008FB0133C2E71B684363E4E7A36B21
:1010F0000022181D184900F00BFF051E0ED0032218
:1011000043681A400AD11968144B4968994205D1BD
:10111000031D0121124821F08FFF6860200005B0F7
:10112000F0BDC046DCAC0200050E0000050B00005F
:10113000E10F00007D0D0000850F0000AB2F0200C5
:10114000F50C0000290F0000E13002007D180300BB
:1011500054180300ACB60200561000005E020000F6
:1011600064AC020037B50D001C0000231100009391
:1011700001220333280007F089FD012D04D0032D3F
:1011800006D0074814F024FB206805F075FB3EBD2F
:10119000206806F0A7FAA2686168FFF75BFFF6E730
:1011A000D41803001FB5064B0A0001934B68029345
:1011B0008B68010001A8039313F0C6FC05B000BDC5
:1011C000A0AC0200F8B50E0003271349134AB04241
:1011D0001CD003003B401BD104688C421AD1406BE9
:1011E000002814D003689342F1D1050044680C4BE9
:1011F0000835E418A4002C192868A542E5D231006E
:10120000FFF7E0FF002802D10435F5E70120F8BD23
:101210000020FCE71800FAE7DCAC020020DF020047
:10122000FFFFFF3FF0B585B00500019108008B0777
:1012300017D10B68134A93420BD10123029301ABE0
:1012400003930024029E039FA6420DD10E4805B0D1
:10125000F0BD0E4A934204D103AA02A924F0BFFCB8
:10126000EFE70B4814F0B4FAA300F958094B994280
:1012700006D02800FFF7A6FF002801D10134E3E7DC
:101280000548E4E7DCAC020070AD020020DF02009C
:101290001B1803000CFB020078AD020010B5830799
:1012A00003D1054B02689A4202D0044814F090FA28
:1012B000FFF7B8FF10BDC046DCAC0200B417030056
:1012C000FF230322DB05CB1810B59343042804D871
:1012D00019F064F906030F0416000021080010BD80
:1012E0000021181C19F02EFB0A490028F6D00A49E3
:1012F000F4E7181C1AF0EAFA012140000143EDE777
:10130000802109065B18022193431943034BC91836
:10131000E4E7C04678AD020070AD020000008080B6
:10132000FF23DB0510B50400C818032398430023EE
:1013300086B00193063300931022613302A900F0B6
:1013400057FF02A9200024F02BFB2E2102A829F030
:1013500027FA00280FD1652102A829F021FA0028D8
:1013600009D16E2102A829F01BFA002803D10349F4
:10137000200024F015FB06B010BDC046603F0300FE
:1013800030B50C001100002285B01D000092012331
:10139000200007F07BFC002C23D02868124B034070
:1013A000062B06D0032420420ED1104B02689A422D
:1013B0000AD103A906F0CCFD002203990092130084
:1013C0000CF084FB05B030BD03002340022BF9D0A4
:1013D00005F09EFB03000220A3431843044BC018F2
:1013E000F0E70448EEE7C046070080FF24E2020071
:1013F0000000808002008080F0B5050087B01000FA
:10140000019105F085FB041C0390681F182800D982
:10141000BDE019F0C3F80D121F24333E6F81BCBC30
:10142000BCBCBC0D121F24333E6F9FA8ADB2B700E9
:101430000198211C19F0CCFB03E0211C01981AF043
:101440006BF8019003230198524A9843013B0343F0
:101450009B187CE0211C019819F02CFFF1E700217A
:10146000201C19F06FFA002803D04B494B4826F096
:101470004DFB03A901A821F087FEE3E70021201C12
:1014800019F060FA0028F0D1211C019819F03AFDFA
:10149000D7E70021201C19F055FA0028E5D1211CBE
:1014A00001981CF0FBFF0021041C019019F04AFA7E
:1014B000002807D0039A0023002A01DA80231B06A4
:1014C0000193BFE70021201C039E012719F040FA79
:1014D000002800D1071C0021301C012519F038FA22
:1014E000002800D1051CFFB2EDB2AF42AAD0311CDA
:1014F000201C9FE7019D0021281C19F023FA0028D9
:1015000005D00021201C19F023FA0028ADD1211CA0
:10151000281C1DF0A7F894E70021201C19F012FAEE
:101520000028A2D103A901A821F02EFE0322022047
:10153000019B1849934303435B180493039B934314
:1015400003435B1804A905930AF06AF90300180025
:1015500007B0F0BD0199201C19F00EFA104B0028BD
:10156000F5D1104BF3E70199201C19F0F1F9F5E7DB
:101570000199201C19F0E6F9F0E70199201C19F0F7
:1015800005FAEBE70199201C19F0ECF9E6E70023D6
:10159000DDE7C04600008080FD18030060B7020050
:1015A00078AD020070AD020010B50B790349002B35
:1015B00000D1034924F0F4F910BDC0460E19030010
:1015C0001319030037B50C00110000221D00009212
:1015D0000123200007F05AFB002C05D0286805F0F5
:1015E00071FB034B002800D1024B18003EBDC046E2
:1015F00078AD020070AD020010B5034B186827F0FB
:1016000086FC24F061FB10BDC02A002010B5034BFE
:10161000186827F083FC24F057FB10BDC02A002077
:1016200010B5034B186827F080FC24F04DFB10BD6B
:10163000C02A00201FB5002103200AF0F1F80A4B50
:101640000400196801A827F055FC019824F03CFB20
:10165000A060029824F038FBE060039824F034FB8B
:101660002061200004B010BDC02A002010B506F093
:1016700039F80023064A99008958814205D0013380
:101680000C2BF8D1034813F0DFFE180010BDC04644
:10169000BCAD020019190300094A70B51378002B7C
:1016A0000DD1084D2C78E4B2002C08D10133137011
:1016B0002B70054B186803685B6898472C7070BDE9
:1016C000CC2D0020CD2D0020C02A002010B5FFF722
:1016D000E3FF054B186827F049FC044B8000C35812
:1016E0000620DB00184310BDC02A0020BCAD02005C
:1016F00010B50800FFF7BAFF0400FFF7CDFF054B58
:10170000186827F033FC044BA04200D0034B1800AC
:1017100010BDC046C02A002078AD020070AD0200A6
:1017200010B50800FFF7A2FF0400FFF7B5FF012383
:10173000A340064A064811880B4200D1054811888B
:10174000994311800022044B1A7010BDC02D002057
:1017500078AD020070AD0200D62D0020F8B5FFF77D
:101760009BFF134C13482378002B1FD020780021B7
:10177000C0B20AF055F8012600220F4F2378934299
:1017800012D915005308FB5C3540AD002B410F25E5
:101790002B400A4D9B005B5906259100DB00411848
:1017A0002B438B600132E9E700232370F8BDC0466C
:1017B000D62D002018DF0200CE2D0020BCAD020087
:1017C00070B543885A1E0A2A1FD801252A009A405C
:1017D0000F490888024392B20E480A8002780F2A05
:1017E00013D802780C4CEA40A25C0678D2B20F21E2
:1017F0002E420BD00A401B0113430278DBB2520881
:10180000A35403780133DBB2037070BD8A43F3E75E
:10181000C02D0020D62D0020CE2D0020F0B50600D2
:1018200000248BB0194B1A48E15802F0D1FC03AFE9
:10183000E05104341C2CF5D114230024734301938C
:101840000025AB00F958134821F064FF0135300042
:1018500024F082FC072DF4D1013DAB000D48F9586E
:1018600021F058FF300024F077FC013DF5D201341F
:10187000082C03D101F0E0FE0BB0F0BD01231C42A7
:10188000DED1019824F068FCDAE7C046ECAE020035
:1018900020B002000C00002010B51920FFF7BEFF99
:1018A000004810BDD8C7020010B50C0004F0E4FFDA
:1018B000006B00280ED0E30702D50368002B09D087
:1018C000A30702D54368002B04D0630706D58368BD
:1018D000002B03D10249034826F018F910BDC04679
:1018E0002919030044B50200F0B50F008BB00400C5
:1018F000012138680392FFF7D7FF0600012C22D19F
:101900003B68012118000393FFF7CEFF80210700F9
:10191000490006A827F0A6F880240023089E64004A
:10192000029305AB2200310003983D68A847431C91
:1019300028D105980B2800D0ACE0029B002B34D1B5
:1019400059480BB0F0BD786805F07EF803000290AE
:101950000133D5D00125337B029C2B4200D181E09D
:101960000026210006A827F07DF80395002C6ED0F4
:10197000210006A827F0B6F8011E1ED14B494C489D
:1019800026F0C4F8002810D0029B1B180293844252
:1019900002D9241A3618C4E7802106A8490027F086
:1019A0008EF8802406006400BBE7029B4148079341
:1019B0003B7BDB0775D5404873E000230093220092
:1019C00005AB386821F0C2FC059B0500002B0ED04A
:1019D00006A8210027F0EAF805980B285AD1079BA2
:1019E0000293002B33D106A827F05EF8A8E78442C3
:1019F00027D8089B30009C46079C63469B5D039A52
:101A000059B2002912DA19001F250222A943C02960
:101A10000CD01900103D0132A943E02906D0043250
:101A20009343F03B1A00511E8A4104329619A64294
:101A300012D8029B3000013B0293A642DDD31C006A
:101A400094E7211A06A827F0B1F8002DD1D11A4841
:101A500006A905F0EFFD74E7E443029BA419E4181E
:101A6000060083E7029906A827F00DF8039B029A67
:101A70000093089905AB386821F068FC059B002BA2
:101A80000AD006A827F010F8059B07480B2B00D1B9
:101A900057E7180013F0BEFE337B079005482B4232
:101AA00089D106A9D5E7C046D8C702004819030066
:101AB00090B40200E0D9020024E2020030B50C002C
:101AC00087B0012105002068FFF7EEFE022203A97E
:101AD000606805F073F9049A022D06D9A06804F035
:101AE000B3FF049A824200D90200002303990093B5
:101AF000206802AB21F02AFC029B002B05D0054890
:101B00000B2B05D0180013F085FE4300012018436D
:101B100007B030BDD8C70200F0B589B00191019B74
:101B2000040001211868FFF7BFFE0700012C18D937
:101B3000019B5B685C10631C13D0210004A826F095
:101B400091FF631C03D0631E002C2FD01C000121C9
:101B500004A826F0C7FF061E0AD11B491B4825F022
:101B6000D5FF0124102104A826F07CFF6442E8E799
:101B70000100019803AB012200683D68A847431C9F
:101B80000ED103980B2809D1059B0193012B09D194
:101B900004A826F089FF0E4809B0F0BD13F03AFE04
:101BA00000280CD1012104A827F000F83B7B09484C
:101BB000DB0700D4084804A905F03CFDECE73378C6
:101BC0000A2BBED1F2E7C0464819030090B40200C8
:101BD000D8C7020024E20200E0D90200F0B51F00DD
:101BE00004000D00160085B00221FFF75DFE03AB77
:101BF000009732002900200021F0A8FB039B002B56
:101C000005D005480B2B05D0180013F003FE430048
:101C10000120184305B0F0BDD8C70200F7B50D008C
:101C2000110000220600009228001F000B4B07F055
:101C30002DF8102023F08DFF041E08D1084B094A0F
:101C4000094C5A62002326602000A360FEBD3900C3
:101C5000280009F0E5FDE060F4E7C046FFFF000062
:101C6000802E002018DF0200982E002010B50138C9
:101C700010C909F0D5FDE060004810BDD8C70200CA
:101C8000F8B57F2553B204000E0017001540002B55
:101C90000ADB6B1E012B07D80B68586822F010FC7A
:101CA0000100200023F07CFE022D16D10F492000F8
:101CB00023F076FEF368002B02D05A68002A04D184
:101CC0000B49200023F06CFEF8BD012A07D1002249
:101CD0009968200004F0E8FDF6E7002DEAD03A000C
:101CE000F168200009F042FDEEE7C046B11803009C
:101CF00023920300C36803485A68002A00D09868FA
:101D00007047C046D8C70200136810B51400002BF6
:101D10000BD085239B00994206D10C4B52689A4206
:101D200002D10023C380236010BD87239B0099420A
:101D300001D1C368F7E7064B02689A42F4D1054B1C
:101D40009942F1D1FFF7D6FF2060EDE7D8C7020036
:101D5000F8B50200FD0200000EB470B5050087B0B2
:101D6000102023F0F6FE041E0BD11A4B1A4A1B4C0E
:101D70009D6118625A62200007B070BC08BC03B0B5
:101D80001847002105608160012009F049FD2521E7
:101D9000E06005000B9828F003FD061E09D10B98A2
:101DA00028F016FD320001000B9805F079FCA860C0
:101DB000E1E702A8102126F055FE0CAA0B9902A813
:101DC000019214F0C7FC02A90548E56805F032FC51
:101DD000EDE7C046802E002018DF0200982E00207C
:101DE00024E2020010B50300820708D1064A016808
:101DF000914204D1054AD9680120914203D0044997
:101E00001800FFF7DFF910BDDCAC02001D1C00005C
:101E100038B2020010B5040004F02EFD034BC26876
:101E20009A4200D024690023A36010BD1D1C00004D
:101E3000F8B516001D0004000F0004F01DFD154B41
:101E4000C2689A4200D02469A068002811D10C30E1
:101E500023F07FFEA06000280AD003236360E2889D
:101E6000A1689300CB180332E2801F605E609D6022
:101E7000F8BDE388A18802338B42F0DB033189008F
:101E8000012223F084FE0028F2D0A388A06003334F
:101E9000A380E4E71D1C000070B5150004000E00CF
:101EA00004F0EAFC064BC2689A4200D02469A36899
:101EB000002B02D133602B6070BDE2883260FAE7FC
:101EC0001D1C000070B5040004F0D6FC00230C4972
:101ED000DA0052181568A54205D15168094823F067
:101EE0005FFD012070BD0133612BF1D1064B9C4297
:101EF00003D0984201D00020F4E70449EEE7C04641
:101F00009CB7020010DF020080AE020056190300E9
:101F1000F0B587B00092027804000F00930703D554
:101F2000009B002B00D0F5E0D307DB0F0ED07A4BDF
:101F30003B40062B43D003233B4003D1774938680D
:101F4000884203D0009B012B00D0E3E001935307AC
:101F50005FD52368A568DE08F600AE19B54230D318
:101F6000009B012B00D0D5E02368D9086368994213
:101F700010D104316160A068C90023F0FBFD236823
:101F80006268DB08D21ADB00A060D200C018002112
:101F900028F0CAFB07212368DD086A1CD2000B4029
:101FA00013432360A368ED005D195B4B2F601F4056
:101FB000062F21D001222378934323701CE00123B4
:101FC000C4E72868B8421AD1009B022B14D129001B
:101FD0002368721BD210083B013A6F682800236007
:101FE000D200083128F08DFB2368DD08A368ED00DE
:101FF0005D1900236F602B60280007B0F0BD019BC6
:10200000002B04D1390004F0CDFC0028DCD10835C8
:10201000A4E76368002B05D1009B012B7AD1200037
:1020200000F07EF83C4B3B400593062B27D1F80887
:1020300022F03CFA03906168039818F049FB0026EF
:102040000491049B0293029BDD00A3685D1928683C
:1020500000281BD1009B012B5CD107212368DA08E3
:102060000132D2000B4013432360002E00D0350014
:1020700000236B60059B2F60062B9BD1BCE73900CA
:10208000022012F045FC43100393D4E7042803D147
:10209000002E1DD12E001BE0B84211D1009B022B57
:1020A000AAD123680298083B23600130616818F0C8
:1020B0000FFBA368C900CB58002B25D12B609BE7F1
:1020C000019B002B04D1390004F06CFC0028E5D101
:1020D00002986168013018F0FBFA049B02918B4270
:1020E000B1D1009B012B15D1002E0FD023683500F4
:1020F0000833236000237360059B3760062B00D1F3
:102100007AE72378009A57E70423D7E7200000F006
:1021100007F890E700256FE7070080FF24E2020040
:10212000F7B54368040001935A1C0023174958006F
:10213000455AAA4206D90133222BF8D15508AD18C9
:10214000213B1D43E800A76823F008FD0723226810
:102150006560134001220025236013432370A060B3
:10216000019B9D4203D1380023F015FDF7BDEE0021
:10217000B959002908D0042906D001222000FFF710
:10218000C7FEBE19736843600135E9E764120300B6
:10219000F8B505000023046886681449621C5800DD
:1021A000405A824206D90133222BF8D150088218B6
:1021B00001201043002328606B60800023F0CEFCD8
:1021C0003700A400A860A419A74203D1300023F06F
:1021D000E2FCF8BD3968002905D0042903D00122AA
:1021E000280021F085F90437EEE7C04664120300A9
:1021F000F0B58BB0079310AB10CB009001911B781A
:10220000062A12D8012A08D93F230B700B0001338C
:102210000193002301990B7001E0002AF9D10120FC
:102220009042804140420BB0F0BD0099002929DA6C
:10223000019B01995F1C2D230B70802109068C46A0
:10224000009B63440093019BFF210993009BC905F8
:1022500018000840884222D120234E21079AF81CFA
:102260001A4013001143009A540212D149225A40D5
:102270003A70462253407970BB700023FB70019B7B
:10228000C01AD0E7019F002BDDD0390001370B7059
:10229000D9E74124634039707B70B970EDE7002CB9
:1022A00000DA06240199013A7D1A551B202207996C
:1022B00011430291672940D1002C00D1CEE1002BBF
:1022C00079D0A64A934200D9D4E0A549009818F0E5
:1022D0005DFB431E984100230026303003932033DA
:1022E000059004939F4B039A0099D05818F044FB33
:1022F000002808D0049B039AF6189B4B0098D158ED
:1023000018F0D8FF0090049B5B100493039B0433E8
:102310000393182BE6D115330393009A8F4B934206
:102320005DD38F49009818F031FB002851D0002E62
:102330007CD0FE239B05009351E0002BC1D1029B72
:10234000662B38D1631CAB4200DBAC1E029B651CC4
:10235000049300231E0003930593E343DB171C4003
:10236000049B652B00D0EEE0651C00230693069BC2
:102370009D424CDD009819F0A9FA7B1C08930300DC
:1023800030333B70059A069B934205D1002C03D055
:10239000BB1C08932E237B7019F0B8FA011C00981F
:1023A00019F0BAF8714918F085FF069B00900133C7
:1023B0000693089FDBE7631DAB4200DBAC1F029B6B
:1023C000652B00D1AFE000250493039505952E0001
:1023D000C3E70098654918F06DFF01360090029B35
:1023E000662B03D0672B39D1042E37DC059B3B705D
:1023F000029B672B01D1731EE418631CAB4200DB08
:10240000AC1E002C15D16623013703940493029B64
:10241000662B00D0B0E0012E00DDDDE054490098CD
:1024200018F0B4FA002800D0ACE0D5E02B230393D9
:102430007FE72E23250030227B70BB1C013E1F004E
:10244000002E76D0002D05D1039501235B42059324
:1024500067334DE01A70013D0133EFE76B1FA34274
:102460006CDC029A672A66D01300AC1F0025049327
:10247000059572E7002300260393203304933A4B1B
:10248000039A0099D05818F06DFA002808D0049BE0
:10249000039AF618334B0098D15818F00BFF0090B0
:1024A000049B5B100493039B04330393182BE6D126
:1024B0002E49009818F06AFA002805D000982D4996
:1024C00018F0F8FE01360090029B662B12D1AE4246
:1024D00014DAA3190133AB4204DBAC1B023C631CCE
:1024E00000D1002400233519039301350596663386
:1024F000049332E7029B652B00D0B1E06B1FA3422F
:1025000000DCAC1F2B230025039305953A33EFE73E
:10251000231DAB4200DB6C1F029BA64200DBA3E045
:10252000731CE41ADEE7029B002504932B2303931C
:102530004CE7039689E71C00029B97E70025029B66
:10254000059504930CE7049B672B00D00DE7251E2F
:1025500000D00AE701252C0007E7C046FFFF7F3FB8
:10256000F8FF7F3FB0BA0200C8BA02000000204165
:102570000000A040CDCCCC3D3E49009818F006FAB2
:10258000002824D030217B1E1A782E2A4FD010002C
:102590003038092842D901330193019B1B78302B35
:1025A00015D1019A52782E2A45D10499662942D034
:1025B00001994B70039B0A702D2B3AD1013E002EDE
:1025C0003BD03B00019A9A423AD331231370029BCD
:1025D000672B01D1002C39D1039B002B19D020226D
:1025E000079B0A2113401A00452313433B70039BAA
:1025F00030007B7018F070F80A2118F053F9303170
:10260000B97030000A2118F04DF93C1D3031F970D5
:10261000270000233B70099BF81A04E6392A02D0F0
:1026200001321A70B8E7019A19709342B5D0013B94
:10263000AAE70136C5E70137C3E72B230393C0E7B9
:102640005A1E117819701300BCE71F007B1E1A7800
:10265000302AFAD02E2ABFD11F00BDE701242EE672
:10266000029B672B00D153E704932B230025039390
:10267000FEE6C0460000A04010B50400431C02D096
:102680000248FFF7C7FB024B1C6010BDA82E0020BC
:102690007C2E0020014B024A9A647047802E002055
:1026A000A82E0020F8B50E000500140010F06EF8FA
:1026B000330003272B433B420BD1BC4209D9A2086C
:1026C0003100280016F094FE2300BB43ED18F618E5
:1026D0003C40002C04D022003100280027F032FCBE
:1026E00080220449D2008B58002BFCD010F03EF819
:1026F000F8BDC04600E00140030010B50548002BBE
:1027000003D120F094FE0BF0F5FF096820F095FE50
:10271000F9E7C04670B6020010B50348096804F036
:10272000E7F8024810BDC04610DF0200D8C702001B
:1027300001220020074B08495A600860A821DA608E
:10274000064AC9005A5006495A5004315A500549A0
:102750005A50704700A000400CAC0040FCFF000045
:10276000440500004C050000034B04481B78002B77
:1027700000D103487047C046D82D002078AD020034
:1027800070AD0200F8B5A826324A334BF60019683E
:1027900013680420CB18C9181160304A8C4612788F
:1027A0001B11170009112E4A2E4C2F4D002F48D017
:1027B000002B3ADA9051C31AA920C000135081238C
:1027C0009B00002937DA591A135151510123274C24
:1027D000D3602378002B22D03F222548254B016867
:1027E0008C331B6801310A409D5C1C4B1B78002B0D
:1027F00001D0803D6D001C23026062466B430833AC
:102800009B1A154A9B1013601F23194007D11A4BBE
:102810001A78002A03D01948197010F0CFF8012354
:102820002278042053402370F8BDA9270433FF0009
:10283000D0519351C3E7535181239B00C9181151C3
:10284000C4E7043390515351A9208123C0009B0059
:102850001350F3E74001002050010020D800002071
:1028600000A000404C05000044050000D72D0020CA
:1028700044010020802E0020D9000020BD36020037
:1028800030B585B001220400080001A904F096FAD1
:10289000029A202A00D920220023019D934204D0CD
:1028A000E85CE11808710133F8E7014805B030BD74
:1028B000D8C7020070B504000800150004F0C4F881
:1028C0001F2802D90C4812F0BFFD002D02D10B4881
:1028D00012F07EFF2418042D04D1012023795B001F
:1028E000184370BD280004F0AFF8FF2801D9044850
:1028F000E9E720710348F4E7953F0300A93F03008F
:1029000005860300D8C702000123A022834010B52A
:10291000134CD20513510300C133124CFF339B00FB
:102920009C50114B8900C918A223DB00CA580F4CD8
:1029300000022240CA50F82252011040C022CC5856
:102940009202224310430322C850CC580848224325
:102950002043C850C046C046C046CA5010BDC046FD
:102960000C0500000303000000600040FFE0ECFFE6
:10297000031F0000A0221E21114BD20070B59C58ED
:10298000104D8C439C50A324E4001D510E4C0F4D60
:102990000F4E5C5104355E510E4D80005C51A524F4
:1029A0000D4DE4001D51084C0C4D00190C4C1851F4
:1029B00004341D510B4C185198580143995070BD67
:1029C00000F0014040A10040006000401C050000F4
:1029D00044A100402405000048A100404CA1004053
:1029E0002C0500003405000010B504000A4903F06E
:1029F000D3F80A4BA0211C6001236079084A834068
:102A0000C9058B500021FFF77FFF0020FFF7B2FFC1
:102A10000022044B1A7010BD3CC90200480100207E
:102A20000C050000D800002070B50D000400134E06
:102A30002800310003F0B0F83100200003F0ACF8BA
:102A40000F4BA0221C600F4BD2051D606079012442
:102A50002100814026000C4BD15069798E40002125
:102A6000D650FFF751FF68792100FFF74DFF200096
:102A7000FFF780FF054B1C7070BDC0463CC90200CB
:102A8000480100204C0100200C050000D800002067
:102A9000F8B50025FFF74CFE214B280090331D6050
:102AA0000FF05AFFA0221E201E4B1F491D701F4B06
:102AB000D2001D601E4B1F4C1D608B581E4F834360
:102AC0008B50A223DB00E2581C4E3A40E250E25801
:102AD0001B493243E2500122E5501A4B18684379F2
:102AE0009A401300A022D205535003F03FF8164B32
:102AF0001B78AB4213D0154B1149E2581740E750F1
:102B0000E25816430122E650E550114B186843790C
:102B10009A401300A022D205535003F027F8F8BDC5
:102B2000802E0020D82D002000F001404001002020
:102B30005001002000600040FFE0ECFF001F030098
:102B40000C05000048010020D800002014050000FA
:102B50004C010020F0B53E4E8DB0330090331B6821
:102B60000500002B03D1FFF793FF0DB0F0BD002847
:102B700001D010F0E9FD68460BF096FD002822D147
:102B800033009033186812F065F804000BF0AAFDCA
:102B9000002D01D010F0E2FD2E4B20221D683300E5
:102BA0006D118C3301356D011B6815405D19002CCA
:102BB0002DD1903621002800346027F0B5FD012288
:102BC000254B1A70D1E7002D01D010F0C7FD019BF5
:102BD00022491868FEF7F6FA00240500A042DBD16E
:102BE000019F380003F048FE1D4B98420BD129008D
:102BF000012008F015FE2A000400F8601F21194882
:102C000004F04EFDA060019B0024B364C4E72000E3
:102C100003F032FE144B984209D033000022903367
:102C2000124913481A6020F00FFCB0649DE76368F6
:102C30002B60A3686B60E368AB602369EB6063693A
:102C40002B61A3696B61E369AB61236AEB61B6E752
:102C5000802E002044010020D9000020F8B5020099
:102C600090B40200633F03005CBC0200833F03009A
:102C7000ACB6020010B5FFF70BFF014810BDC0460F
:102C8000D8C70200F0B589B00493734B03901B784A
:102C90000E001500002B01D0FFF7FAFE6F4C8C34AC
:102CA0002368002B06D16D4A40209032136022F039
:102CB00043FF206080226A4BD200DA670122694C10
:102CC000694BE250FFF734FD0023684AF021A3501E
:102CD0000432A3500832A350C22209039200A1502B
:102CE000634F093AFF3AA3500594BE4200D0A3E0D7
:102CF000B54200D09DE05F4D07AC280002F040FFD8
:102D0000002805D001235C492800237002F044FF0D
:102D10005A4D280002F034FF002805D001235649FF
:102D20002800637002F038FF554D280002F028FF9C
:102D3000002805D0012350492800A37002F02CFF81
:102D4000002307AA5F1C9B5C002B39D04D4ABB00B7
:102D5000043BD458A02203213D006379D205C1333E
:102D6000FF339B00995007ABEB5C002B26D0042669
:102D7000444BAA00D358019301226379A0219A40C1
:102D8000A123C905DB00CA50019B0533180002933B
:102D900020F074FC012811D16379A02198403A4BAE
:102DA000C905C850029820F069FC002806D1013EF0
:102DB000002EE1D1019949E00225D4E7022DFBD193
:102DC0000123022FBDD12B4803F02AFAFFF70CFE96
:102DD0000021039811F004FF002501243F221F4B1E
:102DE000802190331860294B1D70294B1C70294B92
:102DF0001A601A4B12198C33186827F095FC2800BA
:102E0000FFF7A8FE244B144E1C60059B50221C604B
:102E10002249280034700FF06BFD049BAB4219D09F
:102E20000E4B3278002A15D09A6C002A12D120BF9E
:102E3000F7E71B4812F0CCFC300003F0F1F9040076
:102E4000BD42C3D0280003F0EBF901002000FFF7DA
:102E5000EBFDBDE709B0F0BDD82D0020802E00208D
:102E600004E100E000A00040FC0F000004050000A9
:102E7000D8C70200D8D702000CC9020020D802002F
:102E800030D8020028BC02000C050000D72D00201D
:102E9000D9000020440100200CAC00408527000030
:102EA000CE3F030010B5084B86B002AC00930194EE
:102EB000042305F01BFF02982379E268A168FFF75D
:102EC000E1FE024806B010BD34BC0200D8C70200C3
:102ED000014B1878C0B27047D82D002010B52420BF
:102EE00022F02AFE0400044B202208C0802127F093
:102EF0001BFC200010BDC0465CBC0200F8B50700FA
:102F000008000D00160003F0B7FC304B98425BD16F
:102F1000781F0F2858D817F041FB08083257575729
:102F200057575757575757303055FFF7D7FF042398
:102F30000400EA5CE2540133242BFAD1300003F0A0
:102F40009BFC224B98423FD10121052F02D0122F2A
:102F500000D002390422FF20B35CA55C803B4B43C8
:102F60005B19FF2B03D90500DB179D432B00A354EE
:102F70000132242AF0D12000F8BD2C00DEE7FFF753
:102F8000ADFF04230400EA5CE2540133242BFAD1A0
:102F9000300003F0BDFD0F2120F095FB2100FF253F
:102FA000221D24311378803B4343DB138033FF2BF6
:102FB00003D92E00DB179E43330013700132914278
:102FC000F0D1D8E72C00E3E70024D4E75CBC020092
:102FD0000122010003001140100000290CD108005B
:102FE000990709D11B68054910008B4204D0044899
:102FF000181A43425841C0B27047C04680F50200DB
:1030000080AD02000023FA21094A89001360094AB1
:103010001370094A1360094A1160094A1370094A7A
:10302000111D0832D3670122CB67074B1A70704716
:1030300058010020D92D0020540100200800002054
:10304000DA2D0020802E0020DB2D002010B5084B4B
:10305000084A1978002907D1916C002902D0FFF79E
:10306000D1FF10BD30BFF4E700221A70F9E7C04667
:10307000DB2D0020802E0020837F0248002B00D112
:103080000148704778AD020070AD02000023A02215
:10309000E02110B583770C4BD2050902D1500B48C3
:1030A00002F064FD0A4802F061FD0A4802F05EFD8C
:1030B000094802F05BFD094802F058FD084802F09B
:1030C00055FD084810BDC0460C05000038D8020068
:1030D00040D8020050D8020058D8020068D8020038
:1030E000E0D70200D8C70200F8B5164C2368002BC1
:1030F00007D1482027F092FA0500134914F050FE3A
:1031000025601248124902680B68D21A0123312A3D
:1031100004D9623393429B415B4202330022012671
:103120000C4D2E702F78032FFCD101329342F8D131
:10313000036820680B6026F03EFC43000120184322
:10314000F8BDC0465C01002098BC0200D42F0020CE
:1031500060010020DC2D002030B50D4C87B02378B5
:10316000012B13D10B4B02221D680621002302A85C
:1031700025F0AAFD082204A9684627F0B9FA039BA6
:10318000029A280014F088FD0223237007B030BD96
:10319000DC2D00205C010020A02010B51049C005E6
:1031A0004B7F5A1C002B09D14C8C0E4BA3430E4C69
:1031B00003510E4B4A775200D05A0FE010335B0098
:1031C000CB185C88A123DB00C450092AF1D101206F
:1031D0000FF0C2FBFFF7C0FF0120404210BDC04608
:1031E0000C000020F01F00000C050000A8120300D6
:1031F00073B5041E09D11A4D2B78002B2CD0194918
:10320000194820F087FA2C7073BD184D2B1DDE6F06
:1032100003F032FB164B2100984214D0154B23408B
:10322000062B05D0A30712D1134B22689A420ED168
:1032300001A9200004F08CFE019B012B0CD1007829
:1032400020F013FE0100300020F064FADCE70B49A7
:103250000B4820F0F9F8A864FFF7D4FED4E7C04685
:10326000DA2D002050C202000C000020802E002029
:10327000B0C20200070080FF24E202005C400300AD
:10328000ACB60200F7B5A123A021214AC905DB0095
:10329000CA500123C27F0D3293401E4A8B50C37F18
:1032A00001920133DBB2032B2FD0C377020003005E
:1032B000002122333632198002339342FBD1042499
:1032C000C17F154F4D000522EB5D7E195343134A14
:1032D0007678D3189B190126A640B44662461B791E
:1032E00001345B00C3185E8C063516435E840D2CDA
:1032F000E9D101220D318A40A023A121DB05C900BB
:103300005A50828E01995A50F7BD0023CDE7C0462E
:10331000F01F00000C050000F03F03000C0000202F
:1033200070B5394B8CB01A78022A07D1A0223749E0
:10333000D2008A58012A07D003221A70344DAB7F7D
:10334000002B03D1FFF708FF0CB070BD2800FFF77A
:1033500099FF304A304913680968063313608B427D
:1033600007D300242D4B14601B78012B0FD0022BA8
:1033700045D000232A8C6B77FF33FF331A42E1D00C
:10338000E1222749D20001200FF0B2FADCE7254EF6
:10339000331DDB6F002B04D033000833DB6F002BB1
:1033A00002D1FFF72FFEE4E710F0CEF968460BF0EC
:1033B0007BF900280CD11C4B186811F04BFC040061
:1033C0000BF090F910F0CAF92000FFF711FFD0E7D9
:1033D00010F0C4F9019B15491868FDF7F3FE0028A9
:1033E000F2D1019803F048FA114B984203D11149E8
:1033F000114822F096FB019B0024B364E4E70F49D7
:10340000280020F087F9CCE7DC2D00200070004078
:103410000C0000205401002008000020D92D0020BD
:1034200099310000802E002058010020F8B50200DC
:1034300090B40200633F030010DF020050C202009C
:10344000F0B5002485B0154D02930AAB1B782E1DF4
:10345000070008350800210001920393F467EC6728
:1034600011F0BEFB0E4B019A18600E4BF7671A6005
:10347000029A0D4BE8671A700C4B1C7011F0EAFBB6
:10348000FFF7B6FE01220A4B1C600A4B1A70039B21
:10349000A34201D0FFF7DAFD05B0F0BD802E002079
:1034A0005801002008000020DA2D0020DB2D00202C
:1034B00054010020D92D0020F0B50024384B8FB0E6
:1034C0001D1D0833DC67374BEC6709AD80C9013837
:1034D00001950093052305F009FC6B68099C049392
:1034E00007942B7B2E7A05932B7C20000393FFF708
:1034F0006FFD2D4D002806D103232340022B09D157
:103500002C40062C06D007AB00220121274804F0EE
:1035100011F9079007980540062D05D0830730D193
:10352000224B02689A422CD108A904F011FD089B95
:10353000002B23D0012B0DD1002E0BD1039B002B90
:1035400008D1007820F091FC07900799380020F00E
:10355000E1F813E0079800F023FF079009AB1B7C0C
:10356000002B03D0079807F009FE0790059B049AEB
:103570000093079933003800FFF762FF0C480FB043
:10358000F0BD03F079F90B4B9842E7D1002E02D140
:10359000039B002BD9D007A9012008F041F9DCE7F3
:1035A000802E002044BD0200070080FF24E20200BC
:1035B000D8C70200B0C2020070B51B4B8AB005AD7F
:1035C00040C9013800930195052305F08FFB059C48
:1035D00020000494FFF7FCFC002807D103232340BC
:1035E000022B0AD1114B1C40062C06D004AB002242
:1035F00001210F4804F09EF8049003A9049804F0F8
:10360000A7FC2A7C2B7B03990092059A00F0B2FE5E
:103610002B7A01000093300000236A68FFF710FF47
:1036200004480AB070BDC0466CBD0200070080FFB0
:1036300024E20200D8C702000022074B10B51A701E
:10364000064B02321A70064B064A1B68063B136093
:10365000FFF7FCFC10BDC046DB2D0020D92D00205B
:10366000080000205401002010B5FFF7E5FF0148D5
:1036700010BDC046D8C7020010B5042901D8042ADD
:1036800002D9094811F0E0FE092B01D90748F9E7F2
:103690000524614341188A18137101229A40038C52
:1036A0001343038410BDC046953F030069400300E7
:1036B000F8B548680C000D6803F0C6F90600A0686C
:1036C00003F0C2F90700E06803F0BEF93A00030016
:1036D00031002800FFF7D0FF0048F8BDD8C702002E
:1036E00010B5042901D8042A02D9044811F0ACFE0F
:1036F0000523594340188018007910BD953F0300F9
:1037000070B5104C050021000F4802F045FA210069
:103710000E4802F041FA21000D4802F03DFA210066
:103720000C4802F039FA21000B4802F035FA21006A
:103730000A4802F031FA20F073F801230848AB7709
:1037400070BDC04624C9020038D8020040D802002B
:1037500050D8020058D8020068D80200E0D7020012
:10376000D8C70200C3790248002B00D10148704736
:1037700078AD020070AD020010B510F031FD0148C7
:1037800010BDC046D8C7020010B5086810F028FD6B
:10379000004810BDD8C7020073B50D00022836D10D
:1037A000012601A9686804F0D3FB76423400019B2E
:1037B000C318834212D101A9286804F0C9FB7342DF
:1037C000734162426241DBB2D2B2019910F04CFE09
:1037D000002820D11049114824F098F90278722A63
:1037E00001D0772A06D1611C0ED1723A544254415D
:1037F0000130DEE7622A01D0742A05D1711C03D1A1
:10380000743A56425641F3E7054811F01DFE012671
:1038100076423400CFE776BD8F40030044B5020006
:1038200082400300F7B503780400002B1FD0402B23
:1038300020D101230193002304221E001D00190042
:1038400094462278002A3ED10132002910DC002D56
:103850000EDC002E0CDC033B934209D9013C23789B
:103860005C2B05D00199002901D00A2B00D1002240
:103870001000FEBD3F491FF0E0FF0028D9D13E49AE
:1038800020001FF0DAFF0028D3D13C4920001FF0B0
:10389000D4FF0028CDD13A4920001FF0CEFF0028E8
:1038A000C7D1384920001FF0C8FF0028C1D13649D0
:1038B00020001FF0C2FF0028BBD1344920001FF0B8
:1038C000BCFF0190B7E76778272A11D1002B4DD0B4
:1038D000032B09D1272F05D1A278272A04D102343E
:1038E000243AD31A0134ACE7012BFBD80122F8E7C4
:1038F000222A11D11A006046824309D1222F05D114
:10390000A278222A02D102346246EAE7002B01D0D3
:10391000022BE7D10222E4E75C2A0AD1272F03D049
:10392000222F01D05C2F04D11A00571EBA41A418CF
:10393000D8E7002BD6D15B2A12D006D8282A0DD082
:10394000293A57425741C91BCCE77B2A0AD07D2A26
:103950000AD05D3A57425741ED1BC3E70131C1E739
:103960000135BFE70136BDE7013EBBE7272FBDD1DB
:10397000B2E7C04612430300AA400300B040030070
:10398000B440030090690300A2A40300D117030010
:10399000F0B58BB007934318039004920193009302
:1039A000009B5C1E039BA34201D9009310E020788A
:1039B00012F010FC002801D00094F1E7207812F0FA
:1039C00015FC0028F8D123785F2BF5D02E2BF3D0EF
:1039D0007D4B1D68009C019B9C4202D223782E2BBC
:1039E00021D1009BE71A019B9C4241D30024260071
:1039F00002940194AB68A34256D8019B002B00D0DF
:103A000084E0009B039A93422FD1704C3A0021002E
:103A1000180026F05EFE002827D1079BE419073026
:103A20001C60C01B22E00134D5E70136AB68B3420D
:103A30001BD9F3000293EB68F20098580028F4D0E9
:103A40000428F2D009A904F083FA099B0100BB42C3
:103A5000EBD13A00009826F0C2FE0028E5D1EB68D1
:103A6000029A9B185868002804D100200BB0F0BDC2
:103A70000026DBE7032318420CD10368544A934223
:103A800005D123F04DFF0500631C0093A2E7514AC6
:103A9000934201D002F0F0FE856B002DE5D04E4B35
:103AA0002A689A42F0D0E0E7EA68E30098580028D4
:103AB0001CD004281AD009A904F04AFA099B0690E0
:103AC0000593BB4212D301003A00009826F087FE0E
:103AD00000280BD1029B002B12D03B009E4202D348
:103AE000059A9A4204D2019B01330193013481E784
:103AF000029AD15C069AD25C914205D10133EDE77E
:103B0000069B059E0293EEE71E00ECE7019B012B4E
:103B100001D0BE4254D9029B079ADB191360F01BF7
:103B2000A4E7029BEA68DB00985800283AD00428F2
:103B300038D009A904F00CFA099B03900593BB4205
:103B400030D301003A00009826F049FE0190002889
:103B500028D133000F220F33DC171440E41824114E
:103B60002401A41B012C00DC1034059A33199B1886
:103B7000402B0DD9039A1949049821F0D2FF099ED0
:103B800010E01749049821F00BFF019B01330193CA
:103B9000019B9C42F5DC0399049821F001FF099BED
:103BA000F6183619029B01330293AB68029A9342CE
:103BB000B7D80C49049821F0F3FE0120404255E7A4
:103BC000002340260293F0E7802E00209E40030051
:103BD00060020300DCAC0200F8000300A640030012
:103BE00006420300425303000300203B5E2B00D932
:103BF0003F20052320384343014A1068C01870470E
:103C000068000020044B0B6043684B608368080029
:103C1000CB6000238B607047A4BF020070B5050025
:103C2000080068430130401008300C0021F084FF88
:103C30000122044B8571036003794471934303713E
:103C400070BDC046B0C2020010B50379DB0702D5D3
:103C5000014811F0BDFD10BDB840030070B505006E
:103C6000202021F069FF05210B4B040003600800B0
:103C7000FFF7D4FF6B68EA68A060236162602A7C6A
:103C80002000A276AA689B1863616B7CE3761FF024
:103C900052FE200070BDC046F4C2020070B50D0097
:103CA0000400FFF7D1FF280002F0CEFE0100092832
:103CB00002D9044811F0C8FB20001FF09EFE024804
:103CC00070BDC04669400300D8C70200F7B5C3689D
:103CD0004269040093420BD1037E052B08D1C37EB9
:103CE000181E43D020001FF026FEA0681FF093FE90
:103CF000012500266B1E0193A768320029003800B9
:103D00001FF047FE320003000199380001361FF012
:103D10004DFE052EF0D10135052DEAD100252A00F2
:103D200000230421A06801351FF040FE052DF6D1C7
:103D3000227E637E9A421AD2207FFFF755FF00252C
:103D400007000426227E7B5DB21A13410122134034
:103D50000832534304212A00A06801351FF026FED3
:103D6000052DEFD1237EA06801332376FEBD9A4254
:103D7000F8D1E36861695A1CE2608A4205D12023C8
:103D80002377A023DB002383ECE758782077FFF725
:103D90002BFFA17E0500002901D0064BF3E71FF0A1
:103DA000A1FD4042207628001FF0B4FD013060766E
:103DB000D8E7C046FF050000F0B50C000B6889B0DD
:103DC000070018000493FFF73FFF6568280002F022
:103DD00053FD1E4B984202D01D4811F0F9FC072FED
:103DE00001D11C48F9E7A06802F02EFE0690E068B9
:103DF00002F02AFE0790206902F026FE0590606915
:103E000002F022FE059B0600002B01DB002802DAEF
:103E1000114811F019FB062F14D0A06902F014FE0E
:103E20000700E06902F010FE059B03900093280054
:103E300002970196079B069A04991FF01AFE0748FD
:103E400009B0F0BD00200700EEE7C046B0C2020096
:103E5000E5400300F840030012410300D8C7020008
:103E600070B504000800160002F0EEFD05003000F9
:103E700002F0EAFD0600002D01DB002802DA0C4802
:103E800011F0E2FA20001FF0DFFDA84204DD20005F
:103E90001FF0E8FDB04201DC0648F1E732002900DE
:103EA00020001FF0C3FD43000120184370BDC04631
:103EB000554103006E410300F8B50D000C68200069
:103EC000FFF7C2FE686802F0BFFD0600A86802F0B6
:103ED000BBFD0700002E01DB002802DA0F4811F0BD
:103EE000B3FAE86802F0B0FD0500092801D90C48D2
:103EF000F5E720001FF0A8FDB04204DD20001FF010
:103F0000B1FDB84201DC0748E9E72B003A00310077
:103F100020001FF04BFD0448F8BDC046554103008A
:103F2000694003006E410300D8C70200F7B50E00D8
:103F300025490400019221F0F4FD019B002B03D1DF
:103F40002249200021F0EDFD2149200021F0E9FD6A
:103F5000002530001FF086FDA84225DD0027300037
:103F60001FF072FDB8420CDD39002A0030001FF04E
:103F70005DFD184B18491A5C200021F0D2FD013775
:103F8000EDE71649200021F0CCFD019B002B09D163
:103F900030001FF067FD0138A84203DD1049200002
:103FA00021F0BFFD0135D4E70949200021F0B9FD1A
:103FB000019B002B03D10B49200021F0B2FD0A49DF
:103FC000200021F0AEFDF7BDFB41030002420300DB
:103FD0000E420300104203000E8A0300E89C030017
:103FE00008420300425303007B840300F0B50E0037
:103FF000110000228BB01C0000920323300004F05B
:1040000045FE032E00D9D5E0300016F0C7FA020BAA
:10401000919105210800FFF701FE070038001FF00D
:10402000FAFC18E02068644B0340062B07D0830796
:1040300000D07AE0614B02689A4200D075E007A98F
:1040400003F086FF079B03900593012B06D10078B0
:104050001FF00BFF070038000BB0F0BD00231E005F
:10406000039A029303990598511A884215DD117835
:104070000A2901D03A2908D19E4200DA1E00029B8B
:104080000133029300230132ECE701332029FAD0F7
:104090003929F8D94A4811F0D7F9002B05D0029AEE
:1040A000013202929E4200DA1E0002993000FFF7B0
:1040B000B5FD002507002C00039B0493039A049B85
:1040C0009B1A059A9A4223DD049B1B780A2B01D088
:1040D0003A2B0FD1A64207DD210000232A00380029
:1040E0001FF064FC0134F5E700240135049B013323
:1040F0000493E3E7202B07D1002321002A00380096
:104100001FF054FC0134F1E7392BEFD8303BF4E7D2
:10411000029BAB429FDDA6429DDD210000232A00C9
:1041200038001FF043FC0134F5E7264811F050FB3E
:10413000206802F089FC0500606802F085FC0290AE
:1041400001002800FFF76AFD0700022E00D165E795
:10415000012207A9A06802F031FE002D0BDB029BB3
:10416000002B08DB0024089B03940493029B049A11
:104170006B43934205D014488DE7039B01345B19D0
:104180000393029B9C4200D165E70026AE42F4D027
:10419000039A079B9446049363449A5D131C092A6F
:1041A00000D909233100DBB2220038001FF0FEFBEA
:1041B0000136EBE70548B9E7070080FF24E202007B
:1041C0007E410300A7410300BF410300DC4103001F
:1041D000F0B585B0019105000021019816F0B8FBFB
:1041E000041E02D0214811F02FF928001FF02CFCEA
:1041F000060028001FF036FC01003000FFF70EFD1E
:10420000070028001FF020FCA0422CDD002628001B
:104210001FF01AFCB04224DD3200210028001FF0FC
:1042200005FC17F073FB019917F044F819F07AF9BF
:1042300000220F4B17F0F4FB0E4B0022029003916B
:1042400016F04CFB0923002804D00298039919F0BA
:10425000C7F803003200210038001FF0A7FB013629
:10426000D5E70134CDE7380005B0F0BD2A410300A1
:104270000000E03F00002240F0B587B004910592B5
:1042800007001FF0EFFB040038001FF0DDFB029079
:1042900004981FF0E7FB0190A04202D0194811F0EA
:1042A000D3F801990298FFF7B9FC00250390029B0F
:1042B0009D4223DA0026019BB3421DDD3200290016
:1042C00038001FF0B3FB32000400290004981FF0EF
:1042D000ADFB059B002B0AD02318092B00DD092319
:1042E0003200290003981FF061FB0136E3E7231A2F
:1042F000DA43D2171340F3E70135D8E7039807B044
:10430000F0BDC0461B420300F8B5040008000D00D4
:10431000160002F0B1FA164FB84201D000200FE0AB
:10432000053C042CFAD8200016F02EF9141403F8DA
:104330000B00300002F0ECFB011C2800FFF748FFE7
:10434000F8BD300002F0E4FB011CFE20800516F0F1
:10435000D9FDF1E7300002F08FFAB842DED16242B7
:1043600062413100D2B22800FFF786FFE8E7C0467D
:10437000B0C20200F7B507000193142008AB0E008D
:1043800015001C7821F0D8FB044B47600360019BAB
:104390008660C56003744474FEBDC04630C302002D
:1043A00070B505000C2021F0C7FB0521044B04006B
:1043B000456003600800FFF731FCA060200070BD7D
:1043C00058BF02000722436804481B791340044A7F
:1043D000D35C002B00D003487047C04678AD020084
:1043E000DA00002070AD020010B50124037A0549FF
:1043F0009B005A580448224200D10448A243CA50A4
:1044000010BDC0466401002078AD020070AD02000E
:1044100070B5037A064C05009B001859400821F03E
:1044200053FC01222B7A9B0019590A401A5170BD86
:104430006401002030B5A222A025D200ED05AA58C3
:104440000723CA401100164C0340E056421EC9071C
:1044500000D5421C022A0ADC002082421ADB1149E4
:10446000CD5C854201D0C8540230E25430BD072AE9
:1044700009DD0C2A10DC0B490320CD5C002DF4D1A2
:104480000238C854F1E707490320C95C0029ECD180
:104490000800EAE70200E8E703200C22E5E7C0464F
:1044A000E2000020DA0000201D4B70B55979187920
:1044B000FFF7C0FF022805D11A490B689A1C012397
:1044C00013430B60184B59791879FFF7B3FF022893
:1044D00005D114494B689A1C012313434B60134CBC
:1044E000200001F025FB124DA84203D1617920790B
:1044F000FFF7A0FF0F4C200001F01AFBA84203D1E8
:1045000061792079FFF796FF0B4C200001F010FB3A
:10451000A84203D161792079FFF78CFF70BDC046B6
:1045200048D8020064010020E8D70200D8D7020072
:1045300044C9020020D8020030D8020007220379C3
:104540001340014AD05C7047DA00002000B58BB000
:104550000FF05CF968461FF094FC054BD968091A06
:1045600089080FF00FF90FF069F90BB000BDC046D4
:10457000802E00200023820708D10068044A0133FE
:10458000904203D0034BC01A434243411800704786
:104590003CC4020000C40200044B88600B60044B62
:1045A00008004B600023CB607047C046C8F402008F
:1045B0006B3F020030B585B005000800694610F079
:1045C0000FFB0400200010F06DFB011E02D1064815
:1045D00005B030BD2B1D002218001EF089FF0028F9
:1045E000F0D00248F4E7C04678AD020070AD02009A
:1045F00070B50500102021F09FFA0400074B696890
:1046000008C01EF06BFFAB68E968A3606B68E068E8
:104610009A0026F06DF8200070BDC0463CC4020030
:10462000F7B504000D0000268B0704D10B68214E5E
:104630009E1B73425E41AB68002B0AD1002E03D053
:104640001D49200021F0ACF91C49200021F0A8F9F7
:10465000F7BD002E03D01A49200021F0A1F9194915
:10466000200021F09DF9002701236A68BA4207D88B
:104670001549200021F094F9002EE9D01349E4E710
:10468000BA000192EA68B9005258002A0FD0042AF1
:104690000DD0002B03D10E49200021F081F9EB68E9
:1046A000B90059580122200002F0FEF8002301371A
:1046B000DBE7C04600C402007042030077420300FB
:1046C0007D42030088420300D09803007B840300EE
:1046D000B418030010B5830707D1044B02689A424F
:1046E00003D10349034823F011FA10BD00C40200AE
:1046F00038420300FCB1020070B50D000400FFF762
:10470000E9FF2900201D01221EF0F2FE004870BDC5
:10471000D8C7020070B50D000400FFF7DBFF2900C9
:10472000201D02221EF0E4FE004870BDD8C7020022
:1047300070B5060008680D000124FFF7CBFFB442F6
:1047400001D3044870BDA300E95828681FF0ABFBF3
:104750000134F4E7D8C7020070B50D000400FFF77C
:10476000B9FF2800002110F03BFA0500280010F0E6
:1047700099FA011E01D1044870BD231D03221800BF
:104780001EF0B6FEF2E7C046D8C7020010B504001E
:10479000FFF7A0FF201D1EF039FF014810BDC046E5
:1047A000D8C7020010B501221FF0AEFB004810BDB3
:1047B000D8C7020070B504000D00FFF78BFF201D65
:1047C000022229001EF094FE002804D103481EF0A6
:1047D0002EFE09F08FFF024870BDC046DCB3020018
:1047E000D8C7020010B50400FFF774FF201D1EF0AB
:1047F000EEFE002803D10249024823F087F910BDDC
:104800005A420300DCB30200F8B50D0001280BD0BA
:10481000002803D002280BD0002004E08B68144845
:10482000002B00D11348F8BD8B685B001843FAE7F2
:10483000032400200C408442F5D10F4B0E68200069
:104840009E42F0D14F68A74203D101207600304349
:10485000E9E7EA68A3009958002906D0042904D0A2
:10486000022010F055F8401036180134EBE7C0462E
:1048700078AD020070AD020000C40200F8B504007B
:1048800010200D0021F058F90600094B210008C640
:10489000070030001EF022FEA4002C19A54201D111
:1048A0003800F8BD012202CD30001EF021FEF5E7F0
:1048B0003CC40200F7B504000E00171E2CD0FFF711
:1048C00009FF194DB4422DD000210800FFF7D6FF93
:1048D00000210500300010F083F90190019810F0DC
:1048E000E1F9061E0CD1002F1CD0E06821F053F92D
:1048F0006B686360AB68A360EB680B4DE36011E02D
:10490000201D002231001EF0F3FD0028E6D031000A
:104910002800FFF7F1FEE1E78842D5D120001FF023
:10492000D5FA05002800FEBDD8C70200F0B589B051
:1049300004000390029101920027FFF71BFEB8428A
:1049400007D13A0003AB012122481FF033FB0400DA
:104950000137029D00262800FFF70CFEB04207D168
:10496000320002AB01211B481FF024FB0500013679
:10497000019B002B05D00023AA680193A3689342F2
:104980000DD0154B06940493144B05930023079305
:1049900004A81FF0EAFA011E12D101230193002F8F
:1049A00002D02000FFF7F2FE002E02D02800FFF711
:1049B000EDFE019B0A48002B00D10A4809B0F0BD6A
:1049C0002B1D002218001EF093FD0028E0D101905D
:1049D000E5E7C0463CC40200C8F402006B3F020099
:1049E00078AD020070AD020073B50C0015000091A7
:1049F000019200268B0704D10B68394E9E1B73422F
:104A00005E4132001F2868D815F0C8FD28101767CE
:104A100067671C676767676767212D346767673B50
:104A2000676767676740464A5358675D29002000FB
:104A30001FF05DFA0400200076BD290020001FF061
:104A4000AEFAF7E7694602201FF08AFAF2E7002E75
:104A500004D069460220FFF76BFEECE72900200036
:104A60001FF03BFAE6E729002000002EE0D0FFF718
:104A700073FEE0E729002000FFF71CFF002EDAD1CB
:104A8000D8E7694602201FF03FFAD3E70122290048
:104A90002000FFF74BFFCDE7012221002800F8E7B7
:104AA0002800FFF767FD002815D0A368AA68934285
:104AB00011D1290020001FF0AEFABBE72900200029
:104AC0001FF0A1FAB6E7201D002229001EF010FDFC
:104AD000044C0028AFD1044CADE70024ABE7C0463E
:104AE0003CC4020078AD020070AD0200F0B50600D3
:104AF00087B000AF7B60F960BA600BF06BFDB06807
:104B000021F0C3FB3861B06821F0C5FB21F0BDFB8B
:104B1000032358433B69C01883001D007B61143593
:104B20002C2B2CD86B460E35ED08ED005B1B9D46FB
:104B300000236C467B61002326606360BA687B6853
:104B4000F968200009F024F9154D00216B68200058
:104B5000236173686B600CF077FF2369061E6B603E
:104B600013D1A3681D687B69002B04D0200021F0BD
:104B700012F8002E11D12800BD4607B0F0BD280064
:104B800020F0E7FF041ED6D1CCE73B6903339B003E
:104B9000E3185D687B69002BE8D1280009F0AAFDC5
:104BA000802E00200122030030B5134085B00400A0
:104BB0004510002B14D125491D00884210D02449EE
:104BC00088420DD0234B1500984209D0032303409F
:104BD00009D1214A0168914205D121F0B2F80500BE
:104BE000280005B030BD1D4A25002240062A05D008
:104BF000002B08D11A4B22689A4204D101A9200047
:104C000003F0A6F9EBE7200001F036FE154B9842C1
:104C100007D1FF23DB05E0180323984316F056FE67
:104C2000DDE7114B984202D0104B984206D101AA01
:104C30006946200001F0AAFF019DD1E7022201A9E7
:104C400020001FF075FC0028CAD0F5E7D8C7020085
:104C500070AD020078AD020080F50200070080FF11
:104C600024E2020034AD020020DF02006CE002000A
:104C7000F7B506000F0000920193041E00D04468AF
:104C80003800431E984120180430800020F054FF63
:104C90000C4B050003600C4B5B684360009B83601A
:104CA000019BC360002E05D03100A20008311030F6
:104CB00025F01EFD002F02D00434A4006751280007
:104CC000FEBDC046E8C50200802E002070B506007B
:104CD00010200D00140020F02FFF034B466085606C
:104CE0000360C46070BDC046ACC502000021F0B5D1
:104CF000070087B081641FF0AAFAFB693C6ABB63B6
:104D00007B6AFC63002B05DA3A0006214032117001
:104D1000013306E0002B07D03A0005214032117024
:104D2000013B7B6207B0F0BD002833D0BB6A002B8B
:104D300030D13900043340310B703A6BAE4B786B95
:104D4000D3185B001B5A013C9C42EBD017D9F96A7F
:104D50008A4207D30831490020F00CFFFB6A7863D0
:104D60000833FB623B6B5A1C3A637A6B5B009C52C4
:104D70007B6ACDE7013B3B637B6A013B7B623B6B1C
:104D80009D4A9A185200125A9442F3D3CAD0022371
:104D90000B70C7E73C69631C03D1002240373A70AF
:104DA000C0E738001FF0FBF90490002800D129E18A
:104DB0003B00403305930023059A13703B69752B24
:104DC0005AD0622B07D17B69722B5CD001240B2354
:104DD0000022019208E0722B51D17B69622B52D0E4
:104DE000049B012401930A23390040310A78002AE8
:104DF0004ED10B70002C07D038001FF0F8F9022CB0
:104E000002D138001FF0F3F93B690293222B01D045
:104E10002723029338001FF0EAF90123029A039333
:104E20003B6993420BD113007A69934207D1380052
:104E30001FF0DDF938001FF0DAF903230393002691
:104E40003C69631C00D1CEE0039B012B02D10A2CEC
:104E500000D1C8E0039B9E421DD33800310044308E
:104E600023F0A4FE012138001FF0F1F938001FF0F3
:104E700096F90028A2D155E701240A23A8E70024C7
:104E80000A230194B0E7049B022401930B23ABE7B0
:104E90009A42AFD046E7029BA34209D138001900DD
:104EA0004430013611F002FC38001FF0A0F9C7E7CA
:104EB0005C2C00D091E038001FF099F9019B3D690E
:104EC000002B06D038005C21443011F0EFFB2C00A1
:104ED00071E0622D51D030D84E2D77D01AD8222DC6
:104EE00029D0272D27D000260A2DDDD02C00303CDC
:104EF0000326072CE6D87B69303B072B5BD8013EA5
:104F0000002E58D038001FF072F93B69E400303BA6
:104F10001C19F0E75C2D0ED00724612D21D0552DF2
:104F2000E4D13B0040331B780B2B2ED138005C21A1
:104F3000443011F0BBFB2C0013E0742D1FD007D8B8
:104F40006E2D1ED0722D0BD0662DCFD10C2408E013
:104F5000762D18D0E5D30226782DC7D1002428E07D
:104F60000D243B0040331B780A2B32D1380021003E
:104F7000443011F09BFB002696E70824F1E7092452
:104F8000EFE70A24EDE70B24EBE70826752DE5D1C2
:104F9000043EE3E738001FF02AF93D69280011F0CC
:104FA00031F9002800D144E1280023F096FC2401C7
:104FB0002418013EEED20026631C00D174E70F4B8B
:104FC0009C42CED90122059B1A70D4E70C4810F000
:104FD0002DFCFF2CF6D80B2BF4D13800E1B2443075
:104FE00023F0A0FDC7E7039B9E4200D335E73B00BB
:104FF000032240331A7030E7FFFFFF7FFFFF1000EE
:10500000CB420300200011F0E5F8041E386903D1FB
:105010005F2801D07F2842D93D0007233C0040355E
:105020002B704434C1B2200023F07CFD38001FF007
:10503000DEF83869431C1BD1200023F061FD0024F9
:1050400006007E4FA300F958300025F0B7FB00287A
:105050001ED10D34E4B22C70102C00D062E6784BD7
:10506000A8331A680D23002A00D102332B7059E6A9
:1050700011F0B0F8002808D138695F2805D07F28E2
:1050800003D811F0B3F80028D6D03B69D9B2CAE7EB
:10509000002800DA46E60134222CD3D142E611F092
:1050A000A5F800280FD03E00396940362E2916D1C8
:1050B000092333703D004435280011F0F7FA380019
:1050C0001FF095F831E03B692E2B04D1786911F07F
:1050D0008DF80028E7D100255A4C02234AE0082326
:1050E00033703029E6D17A6918331343623B0024C8
:1050F000162BDFD8544CDC4001231C40DAE7002C8F
:1051000017D1030020229343452B12D13C3B33702F
:105110006521280011F0CAFA38001FF068F83969D3
:1051200002220B002B3B9343C6D03869431CE6D1C7
:10513000F8E511F04FF8002805D039692E290BD178
:1051400009233370B8E7386911F050F80028F4D11A
:105150003B692E2BF1D0E5E50B00202293434A2B2F
:10516000AAD1EDE7633E9E43F6B272425641A419BE
:10517000013501342678002E02D03A69B242F1D1CD
:1051800038001FF034F8002E02D14037012206E625
:10519000212E08D13B693D2BF7D138001FF027F8AD
:1051A00040374122FBE52E2E12D13C003B694034B2
:1051B0002E2B02D17B692E2B02D04A232370B1E51E
:1051C00038001FF014F838001FF011F80C23F5E731
:1051D0002A000134267802213300633B8B43DBB283
:1051E000002B0ED1637839690135994207D1380017
:1051F0001EF0FDFF2A00652E03D00234EAE7632E7D
:10520000FBD1124B9B5C3A00403213701900042210
:105210009143422901D0442B03D1BB6A0133BB62C5
:1052200080E5432902D0452B00D07BE5BB6A013BDA
:10523000F5E70122059B04001A7092E650C70200B0
:10524000802E00208A4203000120400041430300D9
:1052500010B5024920F0A4FB10BDC046E042030097
:1052600010B5034A0349044820F05BFC034810BD15
:1052700043440300A740030010DF0200D8C7020028
:1052800010B5034A0349044820F04BFC034810BD05
:105290006B430300A740030010DF0200D8C70200E1
:1052A0000F2310B51940012908D00300002909D0A7
:1052B000022909D120F008FD030003E0044B002877
:1052C00000D1044B180010BD20F019FDF4E7C046D2
:1052D00078AD020070AD0200F7B50600194D0C0064
:1052E00028001DF07BF8310017481CF0FDFF17481F
:1052F0001DF074F816481DF071F8FF239B00E618A6
:1053000021787F2901D0A64206D128001DF066F839
:1053100010481DF063F8F7BD6278A37850290CD8C7
:105320000D48475C0D48405C019300923B00020031
:105330000B481CF0D9FF0434E2E70A481CF0D4FF04
:10534000F9E7C0463A460300674603006F4603008C
:10535000F845030016460300369C0300E59B030056
:1053600090460300B3460300F0B51D0087B0060069
:105370001A4817000C001DF031F8290018481CF0DD
:10538000B3FF18481DF02AF817481DF027F8AD00A4
:105390006519AC4204D111481DF020F807B0F0BDEA
:1053A0003878A2780490206823780003400E039098
:1053B000E0789B060009029020883178C004400EF6
:1053C0000190E0789B0E0007000F0090120907483B
:1053D0001CF08AFF043401360137DAE73A4603004D
:1053E00087450300B4450300E64503001846030063
:1053F0000523020070B5094C094D20684343094854
:105400009B189B0018582B682260C0180F23194066
:10541000090128600EF06AFE70BDC04670010020D0
:105420008C020020A0C80200A839030000B50800C3
:1054300006292ED815F0B2F8040A10161B212800F0
:105440009A18E223DB00D218107800BDC432920013
:10545000D05C8006800EF8E7C4329200D05AC004B7
:10546000400EF2E7C4329200D0580003F8E7C4328D
:1054700092009A1890780009E7E7C43292009A18CF
:10548000D0780007000FE0E7C43292009A18D07875
:10549000F1E7024B024A00201A60D6E764000020C0
:1054A000D4460300A83910B504000800062949D8DD
:1054B00015F074F8040A141F2A343F00E221A218E0
:1054C000C9005218137010BD3F210B401800C432A0
:1054D0009200135D8B4303431355F4E77F21C432DD
:1054E000920019401948135B890103400B43135381
:1054F000E9E77F21C432920019401059144B490347
:1055000003400B431351DEE70F20C4329200A21870
:105510001901937803400B439370D4E70F210B409C
:105520001800C4329200A218D3788B430343D3707F
:10553000C9E70F20C4329200A218D1781B010140A4
:105540000B43F4E7034B044A1A60BCE73FE0FFFF5C
:10555000FF1FF0FF64000020F2460300F0B5D2B256
:1055600085B00E000293072113000B40013BDBB214
:10557000042B02D9294C2A4D25608A431F02002A98
:1055800024D1284B3578C45C274B2409E443E4B28A
:105590002D1BDB19EDB2039308276319039ADBB2C5
:1055A000D35C5A00D2B25BB20192002B33DA1A21DB
:1055B0000320013FFFB2FFF71BFF019B002FF0D13B
:1055C0000134E4B2002CE7D135701AE0D443174916
:1055D000E4B2CE5C0825144B1B19DB5D5A00D2B235
:1055E0005BB20192002B0FDA05210220FFF700FFCA
:1055F000013DEDB2019B002DF0D10134E4B2002C4D
:10560000E8D1029805B0F0BD31000120FFF7F0FEAF
:10561000002EE9D0ECE706210420CAE76400002050
:10562000DF460300190700006A4C0300C55203005F
:105630000022F0B505000F00FF200F248BB008AB4F
:10564000654EDA710100C431890069188B781A0936
:10565000B25C234012011343CA788B7013071B0FEF
:10566000F35CA243234013431A09B25C23401201A6
:105670001343CB700138E5D2E223DB00EE5CB308C4
:10568000F31ADBB20493554B1B68002B0BD0E222BC
:10569000C4218120D200890000013B00AA186918AA
:1056A0002818FFF761FE0024482302940393019415
:1056B000009481222B1912019B181B781800059366
:1056C0000723984320D008A92300059A0731280012
:1056D000FFF744FF0230C4B2023FFFB2002F78D080
:1056E0002B780393013EF6B2002E47D1E2222B190C
:1056F000D2009B181E78B308F31ADBB20493002380
:10570000029301930093D4E7354B009A9C469A5C30
:105710002300C4339B00EB18997809090A433149E7
:105720008A5C019907926246DB78525C1907090F7F
:105730000A432C491B098A5C2B490692029A8A5C0F
:1057400006991343079A8A182649C95C01238918C8
:10575000FF2A00DC031CC918882309061B06C91888
:10576000090F0020FFF744FE039B013BDBB20393CC
:10577000002BB7D10134E4B2013FAEE7049B013BFB
:10578000DBB20493002B02D1059B002B18D1220021
:10579000C4329200535D00999B069B0ECB18DBB27E
:1057A0000093535B0199DB045B0ECB18DBB20193D2
:1057B0005359029A1B035B0ED318DBB2029378E7AE
:1057C00008A92300059A07312800FFF7C7FE040047
:1057D0008CE70BB0F0BDC046EE4703006C01002023
:1057E000BA510300C64903006A4B0300064B1B5C19
:1057F000002B05D0054B185C4843C011C0B2704760
:10580000034B185CFBE7C046164B03008F490300AF
:105810004F480300064B1B5C002B05D0054B185C62
:105820004843C011C0B27047034B185CFBE7C04649
:10583000164B0300CA5203009F480300F0B5037AD9
:105840008DB004007F2B00D157E103000700002535
:105850000933FF330837099301953E787F2E00D036
:1058600087E000230693019306998B00E3180393C6
:105870001A7A481C1B7BC0B206907F2B00D11BE11B
:105880009F49CE5C8D5C9F49AE4200D0F1E08D5CBB
:10589000CB5C0493039B597A019B5918CBB20193BB
:1058A000049BEB18DBB20793023B1B06DCD4A82752
:1058B000019B5D1BEBB20593A82F00D0E1E0039B99
:1058C000039A5B7A527B5B085208991802910199FE
:1058D00001988A18E221C31AD2B2DBB2C900A21819
:1058E000E31852185B18157818782D1AEDB27F223C
:1058F0002B006DB293430893EB17E81858400299B8
:1059000014F0D0FF2800CBB20299099314F0E4FE02
:10591000059A00251600C3B20A93029B9B18DBB2BE
:105920000B93320039002000FFF77EFD0A9B013601
:105930000B9AC018F6B2C3B2964200D1B6E0099AEB
:10594000AD18029AEDB2AA420DD8AD1A20216A46CE
:1059500052181278EDB252B2002A00DAA4E0002BFD
:1059600001D00133DBB2320039002000FFF79AFD8D
:10597000D7E7012E77D12B003100019A20001EF0CD
:1059800021FDBA78604BA1789B185B7830000193B9
:10599000FB780893FFF72AFF3F23E17803403000AC
:1059A0000293FFF737FF7F22584B9B5D1A40584BFD
:1059B00003929A5D0F231A400492564A925D1A4050
:1059C0000592554A925D1A4006923F22534B9B5DC9
:1059D00007937B78EB18DBB20A93029B1340029388
:1059E0007F23184083019C462A003F21C432920045
:1059F000135D0F268B4302990B431355135B4849E4
:105A00000B4061460B431353039B10595903454BFD
:105A100003400B430498190C314000011351084313
:105A2000A21890701B0E0598B34306990343090111
:105A30001E400E43D67081226319079912019A18ED
:105A40001170E222D2009B180899019A0135521870
:105A50001A700A9BEDB29D42C6D1099B0437BB4226
:105A600000D0FAE6FDE6022E8BD12B00019AFF2131
:105A700084E72D48AE4201D9C55C09E78D5C835CA3
:105A800007E7049B019A39009A18D2B22000FFF769
:105A9000CBFC059A050039002000FFF7C5FC079BE9
:105AA0002D1AEDB2029322E7013B5BE70137FFB20B
:105AB000AF2F00D000E7D7E6023189006118019BC3
:105AC000497859186368C9B2002B13D1E2238122A7
:105AD0001648DB001201E318A518001B1A18C4327F
