:020000040000FA
:100000000040002081950100BD950100BF950100D1
:1000100000000000000000000000000000000000E0
:10002000000000000000000000000000C195010079
:100030000000000000000000C3950100C59501000C
:10004000C795010089330100C99C0100C7950100D3
:10005000C79501000000000081960100C7950100CE
:100060001532000025A201003D9B0100C79501004B
:10007000C7950100C7950100C7950100C79501000C
:10008000C7950100C7950100C7950100C7950100FC
:10009000C795010021920100E19201005133000057
:1000A00061330000C795010000000000000000005F
:1000B0000000000000000000000000000000000040
:1000C00010B5064C2378002B07D1054B002B02D02E
:1000D000044800E000BF0123237010BD2001002070
:1000E00000000000C4A60300044B10B5002B03D091
:1000F0000349044800E000BF10BDC04600000000F6
:1001000024010020C4A60300164B002B00D1144B81
:100110009D46402292029A1A924600218B460F4633
:100120001348144A121A2AF0E3FB0F4B002B00D09D
:1001300098470E4B002B00D0984700200021040068
:100140000D000D48002802D00C4800E000BF22F04E
:10015000BBF8200029002AF065F921F0D3FFC04642
:100160000000080000400020000000000000000027
:1001700018010020F02F0020000000000000000007
:10018000F0B58BB0089310AB80CB041C1B780691A4
:10019000062A12D8012A08D93F230B700B0001331D
:1001A0000693002306990B7001E0002AF9D1012083
:1001B0009042804140420BB0F0BD002829DA069BF6
:1001C00006995D1C2D230B7080231B06C418FF218C
:1001D000069BC905E81A131A08000393013B05930F
:1001E000220020232040884220D14E26089AE91C74
:1001F0001A4013001643640212D149225A402A7051
:10020000462253406E70AB700023EB70069BC81AF9
:10021000D1E7069D002BDAD0290001350B70D6E717
:10022000412463402E706B70AE70EDE7002F00DA52
:100230000627089919430291672941D1002F00D15F
:10024000EFE1002A6ED0FE239B059A4200D3C9E05D
:10025000B349201C1AF0F8FA431E984100262023C7
:100260003030079004930196AE4B211CF0581AF0E1
:10027000E1FA00280AD0049A019B94466344019352
:10028000A94B201CF1581AF071FF041C049B043682
:100290005B100493182EE7D1FE232D229B050492B8
:1002A0009C4257D29E49201C1AF0CEFA019B00288E
:1002B00049D0002B01D12B330493FE24A40549E03F
:1002C000002AC0D1029B662B2CD1059A7B1C93423D
:1002D00001DB039F033F029B7E1C039300230493D7
:1002E00005930193FB43DB173B400793039B652B6F
:1002F00000D0ECE0079B5E1C059F059BDB1B9E422C
:1003000000DDEEE0029B662B00D015E1019B012B86
:1003100000DD4DE18549201C1AF096FA002800D135
:1003200046E10FE1059A7B1D934201DB039F073FE6
:10033000029B652B00D0BFE0002603933A3B049359
:1003400005960196CEE70133201C794901931AF0F6
:100350000DFF041C029B662B04D0672B34D1019B3C
:10036000042B31DC079B2B70029B672B02D1019B76
:10037000013BFF18059A7B1C934201DB039F033F5F
:10038000002F09D101233E005B42059367330135FD
:10039000049703930796AFE72E233E0030226B703D
:1003A000AB1C01991D0001390191002900D188E0A1
:1003B000002E05D1049601235B420593673354E078
:1003C0001A70013E0133ECE7039B063BBB427CDC29
:1003D000029A672A78D01300039F073F00260393F1
:1003E00005967FE700262023019604934E4B211C9F
:1003F000F0581AF015FA00280AD0049A019B944686
:1004000063440193474B201CF1581AF0AFFE041CC3
:10041000049B04365B100493182EE7D14449201C3A
:100420001AF012FA002807D0019B201C0133414921
:1004300001931AF09BFE041C029B662B17D1019BB3
:10044000059A93421DDAFB180133934206DB130031
:10045000019A9B1A9F1E012B00D10027019BDE19D8
:100460000593002301360493663303933AE7029B16
:10047000652B06D0672B10D003932B230026049303
:10048000AEE7039B063BBB4201DC039F073F2B23E8
:100490000026049305963A33E7E7059A3B1D9342FD
:1004A00001DB039F063F019BBB4201DB029BE3E7AD
:1004B000019B0133FF1AD1E70026029B04960393A8
:1004C0003EE7019B049376E71F00029B86E7039BB0
:1004D000672B00D010E7079E002F00DD0CE70126F8
:1004E00058E7201C1BF03AF96B1C099303003033CA
:1004F0002B70002F06D1079B002B03D0AB1C099358
:100500002E236B701BF04AF9011C201C1AF048FFC7
:1005100007491AF02BFE013F099D041CEDE6C04679
:10052000F8FF7F3F90AB0200A8AB02000000A040A4
:1005300000002041CDCCCC3D3B49201C1AF084F971
:10054000002825D03020691E0A780B002E2A51D0B1
:100550001400303C092C4FD901331A78302A17D1B6
:1005600059782E2957D10398662854D05A70049A86
:1005700019702D2A4BD1019A013A0192002A01D11A
:100580002B3204922A00511E934246D331221A7014
:10059000029B672B0CD1079B002B09D06A1E551CB0
:1005A0001378013A302BFAD02E3B5A425341ED1AC0
:1005B000049B002B19D02022089B0A2113401A000B
:1005C000452313432B70049B01986B7019F0E2FFD5
:1005D0000A211AF0C5F83031A97001980A211AF0E1
:1005E000BFF82C1D3031E970250000232B70069BCD
:1005F000E81AE0E50139A7E7392A02D001320A708A
:10060000ABE7069A08708A42F4D11300A5E7019A75
:1006100001320192B6E70135B4E70A784A700A0060
:10062000B1E701270DE6C0460000A040F8B5124A28
:100630000E00124B124990421AD0C4688C4203D06B
:10064000012430602000F8BD406B002812D00468FF
:100650009C42F0D10500002447680835BF00EF191F
:10066000BD42EFD2310001CDFFF7E0FF2418F7E7DC
:100670000024E7E70400E5E7D4AF020010CD020054
:1006800075070000F7B505000C00AB68002B0AD019
:10069000344AE168914206D0E358002B03D004228B
:1006A000EB681A60F7BDA06B002820D06B680022B1
:1006B000D9000623043019430EF01EFA002816D084
:1006C000297C4268EB682868002904D001000020DA
:1006D00010F06AF8E6E7002807D02249E5688D4265
:1006E00003D021498C4200D000692100F0E72B683B
:1006F000002B16D1646B002CD4D01C4B22681A4FEF
:100700009A420BD126006368194A08369B189B0051
:10071000F3180193019B34689E4216D3BC42B4D1B6
:10072000C0E72A7C002AE5D10E4AE1689142E1D077
:100730000D4A9442DED01869EA68696810F08EF8B4
:10074000EB681B68002BD5D0ACE7BC4201D1043666
:10075000E0E721002800FFF795FFEB681B68002BFE
:10076000F5D09FE775070000D4AF020010CD02005E
:10077000FFFFFF3FF0B58FB00F0005A90192029374
:100780000500FFF753FF061DB600300023F074FC90
:100790000400002120C026F057FE32002000002176
:1007A000103A10302AF0A4F8012F05D1029B1B68E3
:1007B0000393042B00D187E007AE0822002130000C
:1007C0002AF096F80023424A09A84260FF3AFF3A0D
:1007D000290082600374C6600993FFF753FF0798EE
:1007E00004282ED105983900C668029B019AB047AB
:1007F0002061200009F058FA854265D10023354A6E
:10080000290009A8089307930B9309940A92FFF70C
:1008100039FF079B002B57D00198384336D1010090
:1008200007AA27F0B6FB05002B4B9D424CD02800B1
:1008300025F03DFB2949020029480AF043F806F05B
:10084000D9FB0028D5D0019A3A4306D1012106AB45
:1008500006950FF08BFF0400CBE7019B5C00E419C9
:100860000134A400200023F007FC02990390221F0A
:1008700020C02AF021F8039B019A3068791C0FF000
:1008800075FF0400039823F026FCB2E7019B5D008E
:10089000ED190235AD00280023F0EEFB2A0006001A
:1008A000079B029903600393089B083A4360083052
:1008B0002AF002F832003800019927F06AFB05009F
:1008C000300023F008FCAFE720000FB0F0BDC046B9
:1008D0000A020000020200000CAF0200BA19030075
:1008E00020DB0200F0B51468160089B0002C0ED190
:1008F000436882685F6B03AD03922C746960AC60DF
:10090000EE60002F05D128001049FFF7BBFE09B0AB
:10091000F0BD0F4B3A689A4210D17B680193019B5E
:100920009C42F0D03B00A200083399582800FFF702
:10093000A9FE3368002BEAD10134F0E73900280022
:10094000FFF7A0FE3368002BE1D1DCE7D4AF020053
:1009500010CD020010B54A68014927F07BFC10BD9C
:10096000E219030070B58AB005000E0014000021E2
:100970000822684629F0BCFF0021102206A829F0B1
:10098000B7FF202307936B46296808930595FC233E
:10099000002C02D0042C10D1FF235B0005A8069385
:1009A000FFF770FE0221009804280DD122003100CB
:1009B000286909F0E9FB0AB070BD0A4B05A8069347
:1009C000FFF760FE0321EEE70028F4D0002202AB1F
:1009D0000295039604940FF0C9FE042CEBD0024854
:1009E000E9E7C046110200000CAF0200F0B5214B50
:1009F00089B08200D4580D0008220021070001A808
:100A000029F076FF1423059301AB0693002303AE70
:100A100030002968746003953374FFF733FE019C3E
:100A2000042C07D1380029690FF02CFE04002000A7
:100A300009B0F0BD002C0CD02000290027F0A1FA4D
:100A40000400022FF3D109F03FFA012440000443CF
:100A5000EDE7022FEBD1FD2330005B0029687360C6
:100A6000FFF710FE019B002BE1D101246D002C4308
:100A7000DDE7C04648AD0200F0B5160073425E41A6
:100A8000032376428BB01E402B4B0C0001920021B9
:100A90000822070003A8F61829F02AFF0823079365
:100AA00003AB0893002305AD280021682B7405943F
:100AB0000696FFF7E7FD039B002B0AD1019B002B55
:100AC00007D11D4B28006B60019B2168AB60FFF7CD
:100AD000D9FD039804281DD1206909F0E5F8174BCA
:100AE000C2689A4214D1019B002B07D02368586832
:100AF00023F046FB0100380027F0E6FA8022019B34
:100B000013431A002169380009F0E6F80BB0F0BD74
:100B1000019AF7E7002805D0210027F032FA0022D9
:100B20000100F0E7200025F0C2F92300020004498B
:100B3000380027F08FFBE9E70F02000085A70000CF
:100B4000EF19030070B504000D000B4927F0BCFA43
:100B500069680022200009F0BFF82000074927F04B
:100B6000B3FAA9680022200009F0B6F82000044971
:100B700027F0AAFA70BDC046011A03000A1A030042
:100B8000ED19030010B5C468002C06D14268044971
:100B9000044809F097FE06F02DFAA04710BDC046A4
:100BA0000D1A030020DB0200F0B50400002589B017
:100BB00001AE08220F003000002129F099FE104BF1
:100BC00003A84360E03BFF3B216883600574C66077
:100BD0000394FFF757FD0198A84208D0042808D1D4
:100BE000206909F061F83900436A2069984709B023
:100BF000F0BD32002900280027F0CBF9F7E7C04606
:100C000003020000F0B5154B89B015008200D758DB
:100C10000C000C2200210600684629F069FE18230A
:100C20000497059300276B4603A821680774C360E7
:100C30000394FFF727FD0098042806D12A0030000E
:100C4000216910F0BBFA09B0F0BD0028FBD06A465C
:100C500039000120029527F09CF9F4E7C0AB0200AF
:100C6000F0B51600F6228DB004000393002307A808
:100C7000FF324260E63A05AFFF3A0D00216882601C
:100C8000C7600374059307947B60FFF7FBFC05982E
:100C9000002809D1200025F00AF90C4902000C486F
:100CA00009F010FE06F0A6F9039B042806D13200D5
:100CB000290020690FF05AFD0DB0F0BD00932A0005
:100CC0003300796823F031FBF6E7C0462A1A0300A7
:100CD00020DB0200F0B50D0085B001A90700160069
:100CE000280002AA23F039FC0023019902989942B6
:100CF0002CD13C2023F0D2F92B4B019A03602B4BD3
:100D0000040083602A4B4760C3602A4B03612A4B6F
:100D100043612A4B83612A4BC3612A4B03622A4BEE
:100D200043622A4BC362002A06D0029B1968096BF2
:100D30000163012A18D945632000A66303A9FFF7C0
:100D400075FC012813D9224810F0F6FB9A0082584E
:100D5000D468002C06D152681E491F4809F0B2FD24
:100D600006F048F90133C2E71B684363E4E7A36B6D
:100D700000221A49181D0DF0BFFE051E10D0436851
:100D800003211A000A400B420AD11968144B496822
:100D9000994205D1031D0121124822F0E9F868604B
:100DA000200005B0F0BDC0460CAD0200790A00007D
:100DB00075070000610C0000ED090000050C000043
:100DC000E52E020065090000A90B000019300200A1
:100DD0006F1A0300461A030020DB020056100000C1
:100DE0005E02000094AC020037B50D001C00002329
:100DF0001100009301222800033302F09FFF012D10
:100E000004D0032D06D0074810F096FB206808F0A8
:100E10004BFF3EBD20680BF0F5FFA2686168FFF74D
:100E200059FFF6E79D1A03001FB5064B0A00019310
:100E30004B6802938B68010001A803930FF040FDFB
:100E400005B000BDD0AC0200F8B50E000327144970
:100E5000144AB0421DD003003B4038421BD1046805
:100E60008C421AD1406B002814D003689342F0D111
:100E7000050044680C4B0835E418A4002C192868B8
:100E8000A542E4D23100FFF7DFFF002802D104358C
:100E9000F5E70120F8BD0020FCE71800FAE7C0469E
:100EA0000CAD020010CD0200FFFFFF3FF0B585B092
:100EB0000500019108008B0717D10B68134A934274
:100EC0000BD10123029301AB03930024029E039FE5
:100ED000A6420DD10E4805B0F0BD0E4A934204D192
:100EE00003AA02A923F039FBEFE70B4810F024FB1B
:100EF000A300F958094B994206D02800FFF7A4FF38
:100F0000002801D10134E3E70548E4E70CAD020015
:100F100088AF020010CD0200B91A0300D4AF02005E
:100F200090AF020010B5830703D1054B02689A42C7
:100F300002D0044810F000FBFFF7B8FF10BDC04618
:100F40000CAD0200F21A030010B50C0008F0ACFE64
:100F5000006B00280ED0E30702D50368002B09D0F0
:100F6000A30702D54368002B04D0630706D5836826
:100F7000002B03D10249034827F048F810BDC046B2
:100F8000151B0300B8D90200F0B50F008BB00400A8
:100F9000012138680392FFF7D7FF0290012C21D17D
:100FA0003B68012118000393FFF7CEFF80218024C6
:100FB00000270600490006A826F090F8089B640068
:100FC000029305AB2200029903983568A847431C99
:100FD00028D105980B2800D0A9E0002F35D1594819
:100FE0000BB0F0BD786808F043FF0600431CD7D073
:100FF0000125029B04001B7B010006A82B4200D1A7
:101000007FE026F06BF8002303950293002C6DD04F
:10101000210006A826F0A1F8011E1DD14A494B481F
:1010200026F0F4FF002810D03F18844204D9029B18
:10103000241A1B180293C4E7802106A8490026F051
:1010400079F8802402906400BBE7337B404807971F
:10105000DB0774D43F4872E000230093220005AB05
:10106000386822F02CF8059B0500002B0ED006A84E
:10107000210026F027F905980B2858D1079B0293E9
:10108000002B33D106A826F04AF8A8E7844227D8D7
:10109000022294460898079B0299029A4156825C64
:1010A000039C002912DA11001F256446A943C029B8
:1010B0000CD01100103D0324A943E02906D00721DC
:1010C0008A43F03A1400611E8C410434029AA41839
:1010D0009C4212D8013E9C420DD13400029395E708
:1010E000211A06A826F0EEF8002DD1D1184806A93D
:1010F0000BF030FE74E70294CEE7DB431C19A41911
:1011000084E725F0FBFF039B32000093089905ABB1
:10111000386821F0D4FF059B002B0AD006A825F0E3
:10112000FEFF059B07480B2B00D159E7180010F074
:1011300025FA029B07901B7B05482B428AD006A903
:10114000D6E7C0460CAF0200341B030004D90200EE
:1011500010D00200D4DE020030B50C0087B00121AF
:1011600005002068FFF7F0FE0222606803A909F07D
:101170003DF8049A022D06D9A06808F079FE049A79
:10118000824200D90200002303990093206802AB39
:1011900021F095FF03000298002804D0054B0B288E
:1011A00004D010F0EBF901205B000343180007B0F6
:1011B00030BDC0460CAF0200F0B589B00191019B73
:1011C000040001211868FFF7BFFE0700012C18D9A1
:1011D000019B5B685C10631C13D0210004A825F000
:1011E0007DFF631C03D0631E002C2FD01C00012147
:1011F00004A825F0B2FF061E0AD11B491B4826F0A1
:1012000005FF0124102104A825F068FF6442E8E7E7
:101210000100019803AB012200683D68A847431C08
:101220000ED103980B2809D1059B0193012B09D1FD
:1012300004A825F074FF0E4809B0F0BD10F09EF927
:1012400000280CD1012104A826F03CF83B7B09487A
:10125000DB0700D4084804A90BF07CFDECE73378E9
:101260000A2BBED1F2E7C046341B030004D90200AA
:101270000CAF020010D00200D4DE0200F0B51F0057
:1012800004000D00160085B00221FFF75DFE03ABE0
:10129000320029002000009721F011FF030003987D
:1012A000002804D0054B0B2804D010F067F901206A
:1012B0005B000343180005B0F0BDC0460CAF020050
:1012C0000300080010B5044C04330ECB04604160E9
:1012D0008260C36010BDC046D0AD0200F0B50E0004
:1012E000002785B011001D00012203230390009701
:1012F000300002F023FD102022F0BEFE039B04000C
:10130000036001234760C36028689E4205D108F04E
:10131000AFFDA060200005B0F0BD08F0A9FD606041
:10132000686808F0A5FDA060032EF3D1A86808F056
:101330009FFDE0600028EDD101480FF037FFC04667
:10134000421B030070B50D004A688B680849040011
:1013500026F080FFEA68012A04D12000054926F022
:10136000B3FE70BD2000044926F074FFF9E7C046C3
:101370004C1B030084540300591B030030B50400C8
:101380000D00002087B0042A30D1A3686268E168AC
:101390009B1A5B18581C002900DD581E19F0FAF83A
:1013A000C343DB171840AB0722D1184B2A689A4277
:1013B0001ED1290003AA02F06FFD102022F05CFE6E
:1013C000134BE2680360039B616853435B184360FF
:1013D000049B6168019353435B18059983604A43FA
:1013E000C260002902DAE2689B1A836007B030BD50
:1013F000002301002A00206808F014FEE368584327
:101400006368C018012340001843EFE708E40200B6
:1014100094AD02000A0093685268C9689B1A5B1871
:1014200010B50400581C002900DD581E19F0B2F850
:101430000300002C08D00020012C09D1D843C0178C
:1014400018404000204303E00248002B00DC024823
:1014500010BDC04690AF020088AF0200F0B503682F
:1014600099B007009868079124F0E1FD431E0493AA
:10147000031D9B00FB1802933B0001220F218000FB
:1014800014331B180393FB6806A81A4009180A7046
:10149000032293430A930CA805F086FD031E00D097
:1014A00046E3079A7D68BC68002A00D1A3E22A7847
:1014B0005E2A00D19FE2079807930FF091FD040088
:1014C0000AE0D84B63600434D74B9A6C002A00D1F1
:1014D00090E200229C6C9A6405F084FD0D9427E351
:1014E000D24BEFE7D24BEDE77F216B785B06DB1742
:1014F0003278DB01100052B2084003430136002A63
:10150000F6DB01225B001343DCE700237F21327806
:10151000DB01100052B20840C3180136002AF6DB86
:101520000622DB00EFE703220336964308CEC9E725
:101530000023C7E700237F213278DB01100052B27D
:101540000840C3180136002AF6DB9B005B42029A72
:101550009858002800D02DE3B649B74824F033FD51
:10156000ADE700237F213278DB01100052B2084042
:10157000C3180136002AF6DB029A9B005B4298589A
:1015800022F027FFE5E700207F223378C001190011
:101590005BB2114008180136002BF6DB251D0FF059
:1015A00013F860603EE000207F223378C00119000C
:1015B0005BB2114008180136002BF6DB251D0EF03A
:1015C000D1FFEEE700217F223378C90118005BB21A
:1015D000104041180136002BF6DB206826F0E9FCAC
:1015E000206071E700217F223378C90118005BB2C7
:1015F000104041180136002BF6DB220001CC0FF021
:101600005FF961E700207F223378C00119005BB2E7
:10161000114008180136002BF6DB21000839251F80
:10162000FFF702FC2C004FE7251D0EF0E5FFB8E7A1
:10163000251F04222168286808F0A6FD2860F1E72C
:1016400000237F213278DB01100052B20840C3181A
:101650000136002AF6DB9B005B42029A2168995012
:10166000FBE000237F213278DB01100052B20840FA
:10167000C3180136002AF6DB029A9B005B42216800
:101680009858251F22F0A7FECCE700207F22337850
:10169000C00119005BB2114008180136002BF6DBBF
:1016A0002168251F0EF0BEFFBCE700207F223378A3
:1016B000C00119005BB2114008180136002BF6DB9F
:1016C0002168251F0EF0C6FFACE700217F2233788A
:1016D000C90118005BB2104041180136002BF6DB3F
:1016E000231F1A6820680FF013F9083CECE622006B
:1016F000231F083A21681268186808F045FD0C3C61
:10170000E2E600237F213278DB01100052B208406C
:10171000C3180136002AF6DB029A9B00D31A1A6816
:10172000002A00D118E700221A60CDE600257F22AA
:101730003378ED0119005BB211404D190136002BD1
:10174000F6DB029BAD005D1B286822F042FE0028FC
:1017500000D101E70021286822F03DFEB4E6002018
:101760007F223378C00119005BB21140081801369E
:10177000002BF6DB0EF062FFA6E600207F22337816
:10178000C00119005BB2114008180136002BF6DBCE
:101790000EF06CFF98E6230004CB62601C0093E619
:1017A0002368A360231F1B68636008348CE6231F33
:1017B000196822682160B7E7221F13682168236037
:1017C0002300083B1868106019607DE67378327852
:1017D0001B021343ED18194BEE1875E63378767833
:1017E000206836021E43019608F080FCEE1C251F7F
:1017F0002C00002800D167E6114A019B94466344FF
:10180000F61861E633787678206836021E43019632
:1018100008F06CFCEE1C251F2C00002800D053E6BD
:10182000EAE7C04688AF0200842E00200CAF020019
:1018300090AF02005F1B030040D902000380FFFF4E
:101840000080FFFF33787678206836021E430196C9
:10185000EE1C08F04BFC0028CED1043C34E6337873
:101860007678206836021E430196EE1C08F03EFC96
:101870000028C1D0F1E7FC21266822003000FF31AA
:101880000FF01EF82300FA2108331A003000FF3150
:1018900001930FF015F80021019A080026F079FB5A
:1018A000AB786A781B0213430A9AEE1C0C320A9238
:1018B0000A9AF31813600F2206ABD2181578231D6D
:1018C0001D4302230A992B434B6000230A9913708E
:1018D0008B60A060019CF7E525002368B64A019360
:1018E000083D934209D16360A3602A0000210320D0
:1018F00026F04FFB019B2B6094E60122019B1340D5
:101900000593019B13422AD0231F1A680592019A5E
:101910005210012A0DD1A84A0C3C1A600021E26045
:1019200022610320220026F034FB059B2360032361
:10193000E1E72A68002106929F4A03202A601A6084
:101940002300103B22601A00019326F022FB019B2A
:10195000069A0C3C1A60059B23600523CBE7019B8C
:101960001800636008F0A0F9934B2A0005992060E5
:10197000A360032026F00DFB08F0B8FB00280DD073
:1019800001228D4B06A92B600A9B5B6813400E3227
:10199000521813700A9B0C3B0A9343E66368AAE74C
:1019A000737832781B021343844AEB189B186360E8
:1019B000EB78083423600F267F210220012506AA38
:1019C0002368B6180B4206D1221F1668002B00D1DF
:1019D0008BE6183C78E50A9A013B526802426FD0C8
:1019E000220008C20523636014000A9B1E680A9B3C
:1019F0000C3B0A9335007D602B786E1C1800103864
:101A00005A2800D911E318F031FD5CFD6BFD6DFD26
:101A100010036FFD100380FD8EFD93FD95FDACFD61
:101A2000BEFDCEFDDDFDEDFDFDFD0FFE13FE1BFE3B
:101A30002CFE40FE50FE60FE72FE7CFE91FEAAFE71
:101A4000B8FE1003100310031003C6FECBFE28FFE0
:101A5000D2FED7FEE1FEE9FEFDFE1DFF2AFF1003C8
:101A60001003100336FF67FF630063008000AE00C1
:101A7000BF00DD00DD00CBFFB30010031003100337
:101A800010031003100310031003E900FC001003FF
:101A90000F011E011003270155013A0179018F0141
:101AA00043027302A2028B021003A401AE01B8012B
:101AB000C601D201EF010A022A02D702F9020A0383
:101AC0000A9A52682A4032700A9A0C3A0A9279E7C6
:101AD000737832781B0213430A9AEE1C0C320A9276
:101AE0000A9AF31813602B7806A9403B5A425341D7
:101AF0000F22521810785B000A99034323434B606E
:101B000000230A9913708B60DEE423682A4A93420B
:101B100000D1A2E6DA0707D55B10DBB2043C012B4B
:101B200000D048E70222D9E105F05CFA23680D9362
:101B30000D9B23491868FFF787F9002800D1BAE206
:101B40007A68002A00D1B6E21378432B00D0A4E2D1
:101B5000937850781B02D11C0343CB187B60BB6881
:101B6000103BBB6097E4002120680EF0F5FE37E5DE
:101B70002500210020680C350EF0EEFE844200D1D5
:101B800050E5002323600CE52000337876780C388C
:101B90003602BC601E4303680196EE1C002B02D186
:101BA0002300083B18680EF011FF002802D1019BAA
:101BB000103C25E6606086E40CAF02000380FFFF66
:101BC0006CDA020001220A9B06A95B6813400E3200
:101BD000521813700A9B0C3B0A9375E400207F2275
:101BE0003378C00119005BB2114008180136002B90
:101BF000F6DB01231B1A9B00E418210003F0A6F971
:101C0000EEE400207F223378C00119005BB211405E
:101C100008180136002BF6DB01231B1A9B00E41881
:101C2000210025F094FDDBE400207F223378C00101
:101C300019005BB2114008180136002BF6DB251D98
:101C400022F0EAFCADE42500231F083D1A68216854
:101C5000286822F00AFDE5E400207F223378C001E5
:101C600019005BB2114008180136002BF6DB012386
:101C70001B1A9B00E418210005F090FBB0E4002340
:101C80007F213278DB01100052B20840C3180136C0
:101C9000002AF6DB251F28682168022B03D1CF4AD2
:101CA0000CF0DEFDCAE4083C0A00010020680CF0DC
:101CB000D7FD95E400237F213278DB01100052B27A
:101CC0000840C3180136002AF6DB9A0892005242F7
:101CD00019001059032211408C46251F2168134218
:101CE00002D10DF0B3F89DE46346012B03D12A68BD
:101CF00022F0BBFCF9E422F0F9FE93E400257F21F9
:101D00003378ED011A005BB20A4055190136002BF9
:101D1000F6DB2200290020680FF01AF8B04B5D199D
:101D2000AD006419FFF7D0FB00257F213378ED016A
:101D30001A005BB20A4055190136002BF6DB22006F
:101D4000290020680FF054F8FF222B0A1340154099
:101D5000E5E7032203369643002201CE1100251D3C
:101D600025F0B9FD1DE4032203369643251F2268A2
:101D7000296801CE25F0AFFD60E40322F31C9343F4
:101D80001979023A521A92005E1DA41822001868AE
:101D900025F0BDFD24E40322F31C93431879802130
:101DA000C243490092005E1DA4180143EEE70020E3
:101DB0007F213378C0011A005BB20A401018013647
:101DC000002BF6DBFF25FF220100C3096D00114047
:101DD0002B405B189B00E41A000A0240231D206878
:101DE0000EF0C4FCFFF7FCFB00217F223378C90111
:101DF00018005BB2104041180136002BF6DBFF20C3
:101E0000784BCAB29A1A4000CB090340D31A9B0000
:101E1000E418220000200EF043FEFFF7E1FB002350
:101E20007F203278DB01110052B20140CB1801361D
:101E3000002AF6DBFF211800694A0840121A0192B5
:101E4000FF22DD0952001540019A1B0A521B920025
:101E5000A4182200194026F09CF8FFF7C1FB0021CE
:101E60007F223378C90118005BB210404118013657
:101E7000002BF6DBFF205C4BCAB29A1A4000CB095C
:101E80000340D31A9B00E418FE382200FF38C2E753
:101E90000F2206ABD2181378002B00D142E60121A5
:101EA0000A9B5B680B4013700A9B0C3B0A9339E654
:101EB0000A9B5B6813420ED003220A9B21685B6871
:101EC00093431C0059609A600A9B08341E680A9B61
:101ED0000C3B0A938EE50A9B0C3B0A930A9B0399E1
:101EE0008B42E5D205F07EF80020BC6019B0F0BD51
:101EF0006B78022B03D1043C2068FFF7DEFA002B3D
:101F0000FAD10A9B039A934203D238493848FFF723
:101F100025FB9868002801D0FFF7CFFA0C3BF1E7CA
:101F2000231F0593079B0193231F1868019B002B18
:101F30001AD00021079B07910193019A0BAB0EF079
:101F4000D5FF03000B98012B12D12E00206005F065
:101F500049F80F2306AA9B181A780A9B01201343FD
:101F60007E60BC60FB60C1E7019A21680BABE6E7CD
:101F7000002B11D1002800D11848019B043C20609F
:101F8000002B16D018001B4924F027F8002810D089
:101F900005F028F8019BCAE5174924F01EF800282F
:101FA00003D00B9808F05CFCE7E705F01BF80B9BEF
:101FB000BDE5059CFFF788FA00207F223378C00139
:101FC00019005BB2114008180136002BF6DB251F03
:101FD0002A6821680FF022F8FFF730FB0CAF0200EF
:101FE000FFFFFF3FFEFFFF3FFDFFFF3FA51B03007D
:101FF00030DA020060D702006CDA020000217F2292
:102000003378C90118005BB2104041180136002B2B
:10201000F6DB250001CD0FF013F8FFF7C2FA2068B8
:10202000251F25F0D2FFFFF7FDFAAF2B05D80120C1
:10203000803B5B000343FFF745FABF2B04D8B02277
:10204000D31A9B00FFF783FACF2B04D8C022D31AF0
:102050009B00FFF702FBD62B06D8D03B1800216867
:102060000EF010FBFFF7BCFAFA2B08D8251FD73B60
:102070001800226829680FF0A1F8FFF7DFFA444939
:10208000444823F0A0FF040004F0ACFF049804309F
:10209000800038184460022028E75E2B0BD1BC6812
:1020A0000D98231DBB6008F0DBFB60607B6801338B
:1020B0007B60FFF7F0F90D9B374A93422AD0374AED
:1020C000934227D03B68986823F0B7FF23F0B5FF11
:1020D0007B68051D28005E1B23F0A9FF0400280073
:1020E00023F0ABFF050023F0A2FF0190280023F0AE
:1020F000A4FF341B060023F09AFF0500300023F0F4
:102100009CFF01220378002B09D12900019B0D9827
:1021100008F046FC0F2306AA01219B181CE059B2C7
:10212000002908DB1F21013019405B098C42ECD3E8
:10213000641AD218E6E70F21E0261940F6001B01C9
:102140003340467802303343F0E70A9A52680A4037
:102150001A700A9A0C3A0A921A78002AF5D10A994A
:1021600003980D9A81420DD3012119700A9B023107
:102170001B687B600A9B5B688B430A9904338A6007
:102180001A60EEE40498043080003818426082E758
:102190008B1B03007CD90200D8D50200E8D50200D1
:1021A00010B5040024F0E6FF26F05EF901280BD0FC
:1021B0002000064925F04BF8200024F0DBFF26F034
:1021C00053F9022800D0002010BDC046001C0300B7
:1021D000F0B59DB00C6800AF032836D9CB68FB6022
:1021E000042836D00B6900205D10002B2BDB1C234C
:1021F0002000F9180BF03AFA7861002D5AD0964E6B
:102200009649706803F0CAF9040070680022944986
:1022100004300CF071FC1823FA18D11806002000C5
:102220000BF024FA3B6B0100013DC418002E05D1D0
:10223000A14203D2013C23782E2BF9D1013D0ED2CD
:10224000A1420FD187480EF0B1FF874B0025FB60FC
:10225000CDE70025CBE7013C23782E2BEED0A14221
:10226000F9D3EBE7FE69641A3C61002E02D0731CBF
:102270001B193B616A463B690733DB08DB00D31A55
:102280009D466D462200280028F016FB002E07D040
:102290002E23601C320079692B55281828F00CFB7E
:1022A0002800396901F082FC06243B69C000044320
:1022B000FB617D6120000AF0A5FD09F059FB061EB7
:1022C00015D02E21786928F04FFB00280BD0664BE3
:1022D000FA689A4207D17B69C11A180001F066FCBE
:1022E00009F046FB06003000BD461DB0F0BD1823C6
:1022F00018000125FA18D2183818103B4021C018D0
:1023000024F004FFBE603E61FB69AB4205D2564B30
:10231000FA689A42E7D0BE68E5E7AB4204D07B6931
:102320005B5D2E2B00D094E02900786901F03EFC23
:102330007B6A3860002B17D12A000824796918338A
:10234000F818001924F0AEFE1823FB181819FFF72F
:1023500027FF78607B68002B14D13A6843494448D2
:1023600008F0B0FA04F046FE18230824FA182F21CA
:10237000101924F01AFF3B693969EA1A7B69591868
:102380001823DDE7386809F0F3FA041E4BD13868EA
:1023900009F0BCFAFB690400AB4213D1354BFA6873
:1023A0009A420FD17B68012B0FD0334A2B494068EA
:1023B00022F05BF918220823BA182000D11820F067
:1023C0001AFF30E07B68012BF4D10022796AB86AE9
:1023D0000AF0F6FC83210200890020000EF098FA32
:1023E0007B6A18227B600823B818C0182F2124F0BC
:1023F000DCFE18220823B818C018204924F027FF53
:1024000018220823BA18D01824F0B4FE26F02CF8AD
:10241000022806D118220823BA182000D11820F06B
:10242000EAFE7B687B62BB68002B0CD07A693B6953
:102430009446E91A6344180001F0B8FB2200010039
:10244000B8680EF065FA002E00D126006B1C3B61C7
:10245000BC60013558E7C046842E00204E100000B5
:1024600066100000C41B03000CAF0200E31B030056
:102470009CD7020088AF02003E100000F81B03004A
:10248000A3230021024A5B000248D1527047C04694
:10249000842E00200CAF0200A3230121024A5B001E
:1024A0000248D1527047C046842E00200CAF020073
:1024B000A323044A5B00D35A0348002B00D10348EE
:1024C0007047C046842E002090AF020088AF020003
:1024D00010B500F031FD014810BDC0460CAF020040
:1024E00010B50C4C002808D1FC34236D18005A1C80
:1024F00002D0180123F082FB10BD086807F0B8FC79
:10250000FC34031E044803DA01235B422365F3E72E
:102510001B09FBE7842E00200CAF020010B5024916
:1025200025F0D2FD10BDC046041C0300F8B5214EB5
:102530003568696801292DD9AB684C1E1A5D0A2AD5
:1025400028D15A1E002C01DC220008E0105D0A2868
:10255000FAD0013CF6E7985C202802D10132914282
:10256000F9D8002C0BDD501C814208D1601E0028D8
:1025700005D001381F5C0A2F0CD0202FF7D05B1834
:10258000023B1B78141B3A3B5A425341A408E418FF
:10259000013C00D2F8BD084F04223900280024F085
:1025A00081FD0421380013F0C1F93369043333612C
:1025B000EEE7C0463C010020739E030010B52022C8
:1025C0000021024828F094F910BDC046E42E0020F6
:1025D00002000800002110B5074B1A60526899608C
:1025E000197501395A60D9601A61986126F05CFB4F
:1025F000FFF79CFF10BDC0463C010020F8B50378F2
:102600000400002B1ED0104E306E002804D0210094
:1026100028F0B8F9002815D0200028F0BDF9471C93
:10262000380021F036FD051E0CD03A00210028F0BC
:1026300043F933000722996F013AD967043B002A16
:10264000F9D13566F8BDC046842E0020F0B5B84CEF
:1026500002002068A568436885B00193002D00D072
:10266000FDE0531E042B11D8636801998B4200D101
:1026700095E0012A00D12AE1022A07D12369626884
:10268000934200D94FE10122524288E0032A00D14F
:1026900085E0042A00D12FE1052A00D107E1062AAE
:1026A0000ED12369019A9342AD416D42002DEADDBE
:1026B0002368290098682369C01813F037F91FE0D0
:1026C0000B2A21D1019B2269991A24F0FBFD236872
:1026D000019A5B68934204D213002269981A13F09E
:1026E0005BF92268236951689068C91AC01813F011
:1026F0001DF9236858682369C01A401B13F03AF982
:1027000023695D192561BEE70E2A13D1E368002B0A
:10271000B9DB013B6268E360019B991A24F0D2FDAA
:10272000E368002B18DB834A16339B00D3189968A3
:1027300020680FE0102A16D1E368062BA3DC7D4A3F
:102740005D1C17339B00D318996800299BD06368E0
:10275000E560436024F07BFD63682269D61A226835
:102760005568ED1A0AE0152A0CD123696268616880
:102770009A1A24F0AEFD236962689E1A0127002E82
:102780002FDCA4E70D2A0DD16B4826F08DFA2068C6
:1027900024F0F0FC6368C018FFF730FF002210003F
:1027A00005B0F0BD01231B2A62D0082A01D07F2A80
:1027B00020D121696368994200D864E701228668C4
:1027C000D21AF75C202F13D1D71801339942F8D8C9
:1027D0000126032F00DD03363200891B24F079FD2A
:1027E0000127300013F0C6F823699E1B266178E0AC
:1027F0000126F1E7092A28D1636822698068D11A85
:10280000C0184E4A03AB0BF0D3FE071E00D13AE7C7
:102810000026431C0BD1A06926F046FA63682269A2
:10282000D11A22689068C01813F080F84FE7236926
:102830002068F118039B01365A1C03921A7824F081
:102840002FFDB742F3D13D0041E71300203B5E2B43
:1028500000D918E7216924F02CFD012537E7012D67
:1028600008D104234F2A03D002235B2A00D000237F
:10287000A36008E7022D20D11300303B092B03D8B9
:1028800003232275A360FEE60023A360412A00D142
:1028900052E7422A00D139E7432A00D101E7442A0E
:1028A00000D1EBE6482A12D0462A00D0EBE60027FA
:1028B000019B22693E009D1A0EE00021032D29D1C3
:1028C0007E2A24D1237D312B01D0372B0DD1002539
:1028D0002F00236962689E1A0023A3609E4200DDD8
:1028E0007FE7002F00D1E1E6F1E61A00FB25343A3C
:1028F0002A42DCD0332B0AD12169019B994206D2AE
:10290000012224F0E6FC002501272E00E4E7002543
:102910002F00FAE7042D04D1462AC8D0482AD6D081
:10292000A5E7A160AFE6002501262F0059E7C046C4
:102930003C010020842E0020461C0300F8EE02001B
:1029400010B50B790349002B00D1034925F0BCFBDE
:1029500010BDC046091C03000E1C030037B50C0057
:10296000110000221D0020000123009201F0E6F971
:10297000002C05D0286807F0B9FB034B002800D1D4
:10298000024B18003EBDC04690AF020088AF020067
:10299000F0B50E0049680500170085B0002901D088
:1029A000002A05D13100280020F09AFD05B0F0BDC5
:1029B0000F321309C918009320F00CFD0F233A00C1
:1029C000A868B16874681A401F4200D11022009BA9
:1029D0001F19224BFB185B00C018204B0290E31814
:1029E0005B00CB18019010209C4621000023801A28
:1029F00000291FD1C340029A6400141B23800123C5
:102A0000009A9B1A5B00E418013A2000520027F05C
:102A10006FFF023C002F03D07B00E35A002B1BD03A
:102A200001216F603378DB07DA0F2B788B43134378
:102A30002B70BBE762461288013913431A00C2406B
:102A40000393019B1A80019A039B023A019202228E
:102A500052421B049444CBE7013FDBE7FFFFFF7FBB
:102A6000F0B54B681500526806000C0089B093421F
:102A700001D22C000D000121227863680A4201D1A5
:102A80002A781140C918300020F0A4FCB3682278DD
:102A90000193A36817000293636829789C46AB688A
:102AA0004F400393012318001F408B43614690431E
:102AB00002000693019B04936B685B1A079300293D
:102AC00018D163465900019B5918002F02D00123E9
:102AD0000B800231019820F0F2FB01217060227816
:102AE0002B7853403278DB078A43DB0F1343337074
:102AF00009B0F0BD029B13481B8801391B189B18B5
:102B00000593079B5B18994219D3039B039A1B8873
:102B100002321B180392069A9B18059A5A4092B2E9
:102B20001B0CD7190693049A059B17801A0C049B5B
:102B30003F0C02330493029B02330293BFE7014B25
:102B4000E9E7C046FFFF0000F0B5060095B0079327
:102B500053680D00591C0592019320F03BFC059B26
:102B600000215B68B0685A1C5200019327F0C0FE38
:102B700000237360059B28005B68591C019320F0BB
:102B800029FC2800059920F0ABFC079B6F685B6867
:102B90000493BB4236D8AB680293079B9B680393B0
:102BA000B3680893049BBB422ED33900039A029862
:102BB00020F049FC002823D10123089A6860138083
:102BC0007360059B1A78079B1B785A4001231A42B1
:102BD00014D03278134333706B68002B0ED0012170
:102BE00011A8494220F09BFC3100300011AA20F0CE
:102BF00096FE29002800079A20F091FE15B0F0BD3E
:102C0000431C01D10023DBE7834A049B9B185B0034
:102C10009C466246039B63440993039B9B5A002294
:102C200001921AB2002A63DA0022029B7C001A5336
:102C30007B1C102706936B60029B0199A01C1B183C
:102C40000A93791A029B0B910A998B4256D3099BDE
:102C5000019A1B8893400993049B012B0AD91022E7
:102C6000039B01996344023B1B88521AD340099A83
:102C70001A430992029B049A1C19069B9F1A664BE1
:102C80007760FF18089B7F00DB190C9363460233C3
:102C90000F936B680D930D9A049B934239D31300E5
:102CA0005D4A102194460024029A63445B00D318C5
:102CB000019A891A029A9A4200D8A0E07368002B00
:102CC00007D0554A08999A185200525A002A00D142
:102CD0009FE06B68002B00D173E74F4A02999A1866
:102CE0005200525A002A00D06BE7013B6B60F0E7BC
:102CF000019A5B0001329BB292B291E71988019F61
:102D00000800B84002431A800B9A0233D1408AB2BD
:102D10009AE72088A31E1B8800041843099917F01E
:102D2000AFFB00220F9B0690E31A18000E93039B43
:102D30000B920A93844212D823889A4237D3D01A2E
:102D40009A1A030C80B2411E88412280191800296A
:102D50002FD0039B0E989C4600231F0044E00B9B42
:102D600001991F0C0A9B1B888B401F436B460B97D6
:102D7000998D069B59430388994202D25F1A974264
:102D800010D8D21A8A18130C9C4693B251425A1E7C
:102D9000934163441A0089B20A9B018002330230D6
:102DA0000A93C7E79B1A591A002289B2F4E79A1AC4
:102DB00022800C9B069A023B5A800C930D9B023C8E
:102DC000013B6B6065E73A0C0A926246019F1288EC
:102DD000BA400A9F17430288D318BAB2D318022206
:102DE000038094441B0C02308442ECD82288D31810
:102DF00023801B0CC91A069B013B0693A7E71A8880
:102E0000019F100038418A402043188094B2023B51
:102E100050E7013B736051E7FFFFFF7FF7B5060006
:102E2000194D0C0028001FF0FFFA310017481FF061
:102E30006FFA17481FF0F8FA16481FF0F5FAFF234B
:102E40009B00E61821787F2901D0A64206D12800F0
:102E50001FF0EAFA10481FF0E7FAF7BD6278A3788E
:102E600050290CD80D48475C0D48405C01930092F6
:102E70003B0002000B481FF04BFA0434E2E70A481B
:102E80001FF046FAF9E7C046141C0300411C03007A
:102E9000491C03001F1D03003D1D0300BD6A030004
:102EA0006C6A03006A1C03008D1C0300F0B51D0052
:102EB0008BB007901B4808920E001FF0B5FA29004E
:102EC00019481FF025FA19481FF0AEFA18481FF0EC
:102ED000ABFA0024A54204DC12481FF0A5FA0BB09F
:102EE000F0BD0898A300005D0799F718BA78095D4E
:102EF00004903868F35C0003400E0390F8789B065A
:102F00009B0E0993030902933F880007FF04000FFB
:102F10007F0E0090099B0748120901971FF0F8F9EE
:102F20000134D7E7141C0300AE1C0300DB1C0300B4
:102F30000D1D03003F1D030000B58BB003F0CAF95F
:102F4000684621F046F8054BD968091A890803F04C
:102F50007DF903F0D7F90BB000BDC046842E0020E8
:102F6000C3790248002B00D10148704790AF02009E
:102F700088AF020010B506F099FB014810BDC046AD
:102F80000CAF020010B5086806F090FB004810BDB9
:102F90000CAF020073B50D00022836D10126686817
:102FA00001A90AF063FB76423400019BC3188342F7
:102FB00012D101A928680AF059FB73427341624299
:102FC00062410199DBB2D2B206F0B4FC002820D1F4
:102FD0001049114825F01AF80278722A01D0772A90
:102FE00006D1611C0ED1723A544254410130DEE7E1
:102FF000622A01D0742A05D1711C03D1743A564259
:103000005641F3E705480EF0D1F801267642340028
:10301000CFE776BD6E1D0300B8D90200611D030025
:103020000F2310B51940012905D0022909D0002924
:103030000AD1030003E0064B002800D1054B18001D
:1030400010BD22F0DBFDF4E722F0F3FDF1E7C0460E
:1030500090AF020088AF020010B5040008F014FE23
:10306000074B02001B690749074825F0F3F803F0F6
:10307000D5FB012C01D103F0F3FB044810BDC04681
:10308000842E00207D1D0300F8EE02000CAF02002C
:1030900010B506F0EDFE01F0D9FE014810BDC046A6
:1030A0000CAF020010B503F0BDF8014810BDC046DA
:1030B0000CAF020010B503F0ABF8014810BDC046DC
:1030C0000CAF020010B586B0040005AB04AA03A93A
:1030D00002A800F0D7FD059B029A0193049B0649C4
:1030E00000930648039B25F0B5F8012C01D100F0B0
:1030F00003FE034806B010BD921D0300F8EE020067
:103100000CAF020010B5084C002805D1A834236884
:1031100001305B00184310BD086806F0A9FEA83412
:1031200020600248F7E7C046842E00200CAF020062
:103130008022044B52001A600123034A1360034AA1
:103140001360704700E100E00C8C004000800040FC
:103150008022054B5200DA67044BFF3A5A60002286
:10316000034B1A607047C04604E100E00080004055
:103170000C8C004070B5002501261E4B1E4C1D60B6
:103180001E4B18601E4BE650C046FFF7E1FF1D4B7B
:103190001D4AE660E25002221C4BFF20E55004333A
:1031A000E25008339218E250C12380229B001203A0
:1031B000E250053BFF3BE550C2244022144BA400E3
:1031C000195981430A4380211A510C341A590906AE
:1031D0001202120A0A431A51C022043419598143B7
:1031E0000A431A51802212041A60802252041A6083
:1031F00070BDC0467C2E0020008000406801002089
:10320000FC0F00004C0500007017000004050000D2
:1032100000E100E070B51F4C1F4D636C002B0AD01D
:10322000002363641D4B1B689847A823DB00EA5802
:1032300000018018E850A36C002B09D00023A36480
:10324000164B5B689847164B0001EA588018E85007
:10325000E36C002B0AD00023E364104B9B68984773
:10326000A923DB00EA5800018018E850236D002BE9
:103270000ED000230B4A2365AB580B495B18AB50AB
:103280000A4A1368063313608022094B12045A60FD
:1032900070BDC046FC80004000800040040000205B
:1032A000440500004C050000701700007C2E002033
:1032B000FCE100E0F7B50191032823D8134B80000F
:1032C000C758C223124C9B00E750012301190B641D
:1032D000A8230F250F4EDB00CB58A659921BD218FE
:1032E000D3172B409A18019D0B4B1211C550C123C7
:1032F0009B00E750A8230020013212019619DB0041
:10330000CE50FEBD01204042FBE7C046D4B10200D2
:10331000008000404C0500000400002003280BD86A
:10332000074B8000C158C223064A9B00D150064B70
:10333000064AC2500020704701204042FBE7C046C9
:10334000D4B10200008000400400002005400200CB
:1033500010B5024B1B68984710BDC046680100209D
:1033600070B50025054C2368002B02D00022226096
:10337000984701350434042DF5D170BD5801002063
:10338000074A890003008858002805D18B50802205
:10339000044B52045A60704701204042FBE7C0468C
:1033A00058010020FCE100E0F7B50191114904004B
:1033B0001600002524F088FE7368AB4204D8200074
:1033C0000D4924F081FEF7BD002D03D020000B49EC
:1033D00024F07AFE019BAF00DA590949200024F05D
:1033E00039FF3300083301222000D95906F074FC5C
:1033F0000135E1E703970300845403000A1A030030
:10340000DA1D030037B50400A0680DF007FB01903A
:1034100000280ED06568074B9D4205D0002201218F
:10342000280001AB0DF0A2F906F060FE0028EBD0F9
:1034300001983EBD0CAF0200F0B587B0002807D15F
:10344000604B6148196824F03FFE604807B0F0BD4A
:103450000C685F4B9C4251D10021080024F077F9A1
:103460000024050003905B4B5A680192944215D3E7
:103470000026594A03A901200BF046FD039805AA2E
:1034800004A924F07BF9049B03339B080193019B5F
:103490004D4DB34210D128005049D4E79B680193A9
:1034A000019AE3009958002904D0042902D0280089
:1034B0000BF0CCFC0134D6E73700059ABB009858D6
:1034C0000AF0BEF80100280024F0FEFD019BFF1861
:1034D000049B9F420CD212231C1A002C06DD013CD7
:1034E000EBD328003E4924F0EFFDF8E71234F4E76F
:1034F00028003C4924F0E8FD0136C8E7200006F02A
:10350000D3FB394B42689A4200D1646820000AF02C
:1035100071FF061E99D12C4D3449280024F0D4FDAA
:103520003100200006F0F2FB200022F0C0FC304900
:103530000200280024F08EFEA30732D123682D4A12
:1035400093422BD1200022F0EDFE21F0A3F80026BB
:103550000400B04200D178E763689E4200D374E76C
:10356000A268F300D3181F68002F15D05B682249AA
:103570002800019324F0A8FD0021380006F0C6FBC6
:103580001E49280024F0A0FD0021019806F0BEFB92
:103590002800144924F098FD0136DDE7184A9342CB
:1035A00003D0200006F080FB0400A06B002800D1AF
:1035B0004BE7830700D048E7124B02689A4200D0DD
:1035C00043E7C2E714000020F8EE02000CAF02004F
:1035D0000E15000044DD0200B8E40200DE1D030009
:1035E000769E0300A31E030026020000021E0300B5
:1035F0000A1E030028DE0200759E03001A1E030047
:103600000CAD0200F8CE020010B506F097FC05499B
:1036100017F0ACFD0323020002209A43024B104333
:10362000C01810BDE02E65420000808010B506F085
:1036300085FC054917F09AFD0323020002209A43F6
:10364000024B1043C01810BD35FA8E3C000080803C
:1036500010B506F073FC011C18F06AF8024B002844
:1036600000D1024B180010BD90AF020088AF0200DD
:1036700010B506F063FC440064080849201C18F0EB
:1036800057F8002805D10549201C17F0D3F8002869
:1036900001D0034810BD0348FCE7C046FFFF7F7F11
:1036A00088AF020090AF020010B506F047FC034B54
:1036B000034002201843024BC01810BDFCFFFF7FDF
:1036C0000000808010B506F039FC44006408084909
:1036D000201C18F02DF8002807D10549201C17F0F0
:1036E0009FF8002801D1034810BD0348FCE7C046FD
:1036F000FFFF7F7F90AF020088AF02001FB500235D
:10370000019306F01BFC01A91AF0EEF90322030055
:1037100002200749934303435B180293019B9343A1
:1037200003435B1802A9039301F010FC05B000BD30
:103730000000808070B50D0006F000FC041C28001D
:1037400006F0FCFB18F00AF80100201C1AF0A8F99A
:103750000323020002209A43014B1043C01870BD9E
:10376000000080801FB50023019306F0E7FB01A94C
:103770001AF072F9032302249843074B2043C01820
:103780000290019822F03AFA02A90390200001F079
:10379000DDFB04B010BDC0460000808070B50D0098
:1037A00006F0CCFB041C280006F0C8FB011C201C02
:1037B0001AF020FE0323020002209A43014B10431B
:1037C000C01870BD0000808070B50D0006F0B6FB1B
:1037D000041C280006F0B2FBC00FC30760004008BD
:1037E0001843032302249843014B2043C01870BDA3
:1037F0000000808070B50D0006F0A0FB041C2800BE
:1038000006F09CFB011C201C1AF07AFD0323020029
:1038100002209A43014B1043C01870BD0000808005
:1038200010B506F08BFB19F02FFF032302000220D6
:103830009A43024B1043C01810BDC0460000808060
:1038400010B506F07BFB1AF009FD032302000220ED
:103850009A43024B1043C01810BDC0460000808040
:1038600010B506F06BFB1AF0A7FC03230200022040
:103870009A43024B1043C01810BDC0460000808020
:1038800010B506F05BFB1AF03BFA0323020002209E
:103890009A43024B1043C01810BDC0460000808000
:1038A00010B506F04BFB1AF0EDF9032302000220DD
:1038B0009A43024B1043C01810BDC04600008080E0
:1038C00010B506F03BFB1AF045F803230200022076
:1038D0009A43024B1043C01810BDC04600008080C0
:1038E00010B506F02BFB1AF00FFD03230200022097
:1038F0009A43024B1043C01810BDC04600008080A0
:1039000070B50D0006F01AFB041C280006F016FB2B
:10391000011C201C1AF058FE0323020002209A43C7
:10392000014B1043C01870BD0000808010B506F038
:1039300005FB0021041C16F069FF002802D007488F
:103940000DF034FC201C1AF0D7FF032302000220E4
:103950009A43034B1043C01810BDC0461F1E0300FE
:103960000000808070B5060008680D0006F0E6FAD9
:103970000021041C16F054FF002802D018480DF056
:1039800015FC201C1AF09EFD041C012E06D10323F9
:1039900002209C432043134BC01870BD686806F09A
:1039A000CDFA0021051C16F03BFF0028E6D1FE21D0
:1039B000281C890516F024FF002803D00A490B486B
:1039C00024F024FB281C1AF07DFD011C201C17F09C
:1039D00003FA0323020002209A431043DBE7C046A8
:1039E0001F1E030000008080311E0300D4DB020094
:1039F00010B50C0022F03FF9631E184207D00200F8
:103A000023000349034806F05DFF03F0F3FA10BDFD
:103A1000421E030098DB020010B54A680249D2003A
:103A200024F018FC10BDC0466A1E030070B50600E5
:103A300014000800002A0FD07168042A10D1FFF783
:103A4000D7FF7368012B03D0022B07D0006800E07A
:103A5000007822F0D3F80400200070BD0088F8E759
:103A6000FFF7C6FF0500200006F02EFA7268054C2D
:103A7000012A03D0022A03D02860EDE72870EBE783
:103A80002880E9E70CAF0200074A030050690028CC
:103A900006D042689A4204D89B1A04339B001858F7
:103AA00070470068F3E7C046842E002070B5144DBF
:103AB00004006B699868DB68834215D30230C0004C
:103AC00020F0E7FA6B69002803D1986840000DF0F8
:103AD00057FB5A68D96803609B6852185B00836083
:103AE00000234260C36068616A69D3685068591CEA
:103AF00004339B000138D16040189C5070BDC04613
:103B0000842E0020074B4118884204D3D8B20028E5
:103B100000D1013070475A01D31802780130534068
:103B2000F2E7C04605150000034B044A5A61002223
:103B30009C331A607047C046842E00207CB402007B
:103B4000F0B585B007000E00FFF7DCFF164B0290C2
:103B50005C69002C01D1200021E023001033019387
:103B6000019AE36815009B00D3180393039B9D42C1
:103B700001D32468EDE72868029A0378934210D1B4
:103B80004378B3420DD132003900023026F086FE70
:103B9000002806D1019B6068ED1AAD10281805B009
:103BA000F0BD0435E2E7C046842E0020F0B585B0B4
:103BB00003900191FFF7C4FF021E56D1304F019BC5
:103BC0009C373868DC1C002815D02D4D2C4EA435B0
:103BD0002B68A0363168E3188B4229D9611820F090
:103BE00076FA029000281DD102002968386820F07A
:103BF0006EFA029B3B602600802C00D280263000AB
:103C000020F047FA1E4D2F009C37386000282FD136
:103C1000200020F03EFA26003860002828D120003D
:103C20000DF0AEFA33681B1933603B68002BE2D00D
:103C3000134A1349A43213689C310D68E4180199A2
:103C40000398ED181460FFF75DFF019B03991A00BC
:103C500028706B70A81C26F02FFE019B2800E91825
:103C600000238B70FFF722FF0200100005B0F0BDAB
:103C70002B00A0331E600023A4352B60D8E7C0467C
:103C8000842E0020F7B51D0000230F0016000360EE
:103C90000B6013602B60164B00905C69002C02D007
:103CA000144B9C4204D133682A68D3182B60F7BDAB
:103CB000009B009A1B68019301331360E2683B6824
:103CC0009B1822003B60E36810329B00D3189A4295
:103CD00007D3200002F0B4FC2B6824681818286071
:103CE000DCE702CA30684978033009183160EEE732
:103CF000842E00207CB402000C4B70B55C69002C53
:103D000002D00B4B9C4200D170BD2600E3681036F8
:103D10009D007519AE4201D32468F0E704CE054931
:103D20000232054824F096FAF4E7C046842E0020BB
:103D30007CB402007A1E0300F8EE020010B51C00ED
:103D400002AB1B78002904D0002B02D10E480DF0E5
:103D5000F3FBA24207D1824214D003000B490C4866
:103D600006F0B0FD06E0824206D9121A0949084859
:103D700006F0A8FD03F03EF9844203D203002200BE
:103D80000549ECE710BDC046833B0300AC3B030094
:103D900020DB0200E53B0300173C0300F0B50024E4
:103DA000160087B00C9D0390049105930294019432
:103DB000059B9C4206D1019B039A934240D2254821
:103DC0000DF0BAFB039B9C4213D26B889B05F6D483
:103DD000019B049A01330193A300D058FF226B8802
:103DE000A7001340012B24D106F080F90D9BD85574
:103DF00017E0062329880022C900300019430AF081
:103E00007BFE002810D16B88DB0506D52A88124975
:103E1000124806F057FD03F0EDF80D9A6968A3000B
:103E2000D15001340835C3E7029B40680133029347
:103E3000D4E7022B01D106F01BF80D9BD851F0E717
:103E40003368029ADB08934201D90548B8E707B006
:103E5000F0BDC0465D3C0300463C030020DB020091
:103E60007E3C0300F7B5CD1CAD00019028000E008C
:103E7000170020F001F92A000400064B8660036059
:103E8000019B390043600C3A0C3026F015FD2000F0
:103E9000FEBDC0467CC90200F0B585B00500160025
:103EA000080003AB02AA01A923F070FA0398304F6F
:103EB000B84209D0032807D005F0DAFFB060002827
:103EC00004D12C480DF072F90123B3600198B84277
:103ED0001FD10024B368A34200DC6C1E0298B842D4
:103EE0001BD10023B2689A4200DD2B00B068002C81
:103EF0001BDA2C1900D5C417002B22DAEB1801D5D8
:103F000001235B4200282FDA0133A34221DD631C29
:103F10001FE005F0ADFF0400E0E705F0A9FF031E78
:103F2000E4DBB268D20F8318E0E7002803DDA54286
:103F3000E2D22C00E0E70028DED0A542DCD86C1EDF
:103F4000DAE79D4200D22B0000280ADDA34200DA06
:103F500023000138736043425841C0B2346005B059
:103F6000F0BD0028D1D1F4E70028EFD1F1E7C04639
:103F70000CAF02009C3C0300F0B506000C001700DB
:103F800085B01B2805D10A9A974209D0002005B0B8
:103F9000F0BD19281AD01C281AD00A9A0A971700BF
:103FA0001A00230014000A9A0192BA4200D901971C
:103FB0001D0000230093009B019A93420AD10A9BA3
:103FC000BB4221D00020BB4240411BE01A26EAE759
:103FD0001D26E8E70295039401CD02CC05F0F6FE1C
:103FE000002802D0009B0133E4E71B2ECED0039BB8
:103FF00030001A68029B19680DF0E0F8054BC01AF2
:1040000043425841C0B2C2E730001A38431E9841BB
:10401000F8E7C04690AF0200F0B51E0085B00390EF
:1040200018680D00019205F03FFE736807000293C7
:10403000019B0024022B0FD901232900B26805F04F
:10404000F1FF019B0400032B06D029000123380057
:10405000F26805F0E7FF0500A54202D808480DF018
:10406000A5F8039AA3000299D05805F0AFFE0028E6
:1040700004D001206400204305B0F0BD0134EBE71B
:10408000B63C030070B505000C200C001FF0F4FFD7
:10409000024B45600360846070BDC046B8C9020031
:1040A00010B504000C201FF0E7FF034B0360012351
:1040B0005B424460836010BDF4C9020010B5040087
:1040C00008201FF0D9FF024B0360446010BDC046BA
:1040D00030CA020070B51300127804000A3AD0B258
:1040E0000F2809D90A001148114906F0EBFB0025F9
:1040F000636A1860280070BD00255B7812021A43BD
:10410000E36AAB420AD1238C0025042BF2D1094982
:10411000064806F0D7FB636A1860EBE7206BA9003E
:1041200009589142E6D00135EBE7C046A8DA020013
:10413000CD3C0300E23C0300F0B5040085B00D0067
:10414000100003A9A26A1E0023F053FD002809D124
:104150002A000B490B4806F0B5FB636A1860002083
:1041600005B0F0BD039805F0AFFE0300B343F7D0F0
:1041700003002A0004490096024806F0A3FBECE77E
:10418000F93C0300A8DA0200113D0300F7B51E0058
:1041900013780D000A3BD9B204001C480F2904D83B
:1041A00050781B0218431FF0EBFF0378184A019365
:1041B00000235178019FB9421DD141788C469178F6
:1041C0008C4518D181788C46D178614513D100296E
:1041D0000ED10F4A9B00D05CB04208D933002A00B0
:1041E0000C490D4806F06EFB636A18600020FEBDA6
:1041F000C1780029EDD001330432152BD9D12A0022
:104200000649054806F05EFBEEE7C046186B030062
:10421000C83E03003D3D0300A8DA0200563D0300FE
:10422000F0B5137805000E00100085B0462B46D17E
:1042300001A923F00EFD019B834240D003781A00B0
:104240000A3A0F2A0AD802000F2331002800FFF78C
:104250009DFF01248440200005B0F0BDB32B2ED17A
:1042600023F0F2FC040023F0EAFC02900378B62B62
:1042700025D12200A73B31002800FFF787FF01244A
:1042800003A98440029823F0E4FC039B0290984227
:1042900003D09D2102A823F0EBFC0127029A039B87
:1042A0009A42D8D00F2331002800FFF76FFF3B0060
:1042B000834002981C4323F0C2FC0290EEE73200D8
:1042C0000349044806F0FEFA6B6A00241860C2E74E
:1042D0006E3D0300A8DA0200F0B50F0087B00400BD
:1042E00004A938001E0001921FF04FFF019B05003A
:1042F000002B0FD1BF4B9F4205D1BF2109022000E7
:1043000021F0A1FEC2E0C0239B009F4200D087E0C5
:10431000B949F4E7019B012B00D099E02233FF3328
:104320009F4212D1010032682000FFF7D3FE010046
:10433000200021F0D2FE002800D0A7E0AF49B0480D
:10434000646A21F040FE2060A0E089239B009F4228
:1043500009D1010032682000FFF7BCFE01002000F7
:1043600021F012FFE7E78A239B009F420AD1010058
:104370000F2320003268FFF709FF8E21C000C9011A
:104380000143BCE70378622B31D1049B032B07D098
:10439000052B2CD1C3785F2B29D103796E2B26D125
:1043A000012700226978974B7F425878884205D1CF
:1043B000A87884469878844500D11F780132033369
:1043C0000E2AF2D17B1C2BD0290032682000FFF787
:1043D00081FE049902000023052903D12B79773B44
:1043E00059424B413900200021F094FEA3E7864B4F
:1043F0009F4201D1854982E78F239B009F4201D1D3
:1044000083497CE7AE239B009F4212D12900200004
:104410003268FFF705FFFF231B02B421184215D0B5
:10442000019B2A007B49764806F04CFA636A1860C3
:104430002CE0794B9F42F3D1290020003268FFF72E
:10444000EFFEFF231B021842EAD1BC21090297E7C5
:10445000019B022B00D01EE17368704A1B780A3B57
:104460000F2B4BD8974213D101000F233268200045
:10447000FFF78CFE2900070072680F232000FFF76A
:1044800085FE39000200200021F010FE07B0F0BDCB
:10449000634B9F4215D18027FF0129003268072313
:1044A0002000FFF773FE29007268019007232000A7
:1044B000FFF76CFE39000300019A200021F0EFFDA8
:1044C000E4E70027574B01330293032228000299A7
:1044D00026F069FA00280AD1EB78002B07D1514B5E
:1044E000BF00DF5D80233F01DB011F43D5E7029B57
:1044F0000137043302930F2FE7D191E7974219D187
:1045000080270723290032682000FFF73FFEFF23A2
:104510002900019072682000FFF70EFE019BBF0189
:10452000074319023943EAE6A027EAE7C027E8E78C
:10453000E027E6E73C4B9F42F6D03C4B9F42F5D04C
:104540003B4B9F42F4D03B4B9F4200D17CE0013378
:104550009F427BD0384B9F427AD0384B9F4279D0D4
:10456000374B9F4278D002339F4200D058E7052353
:10457000344A9B009B5A290032680293200007238B
:10458000FFF704FE766803903378452B66D1300040
:1045900023F09AFB002861D1300023F055FB03780B
:1045A000A62B5BD105A923F054FB0599060023F047
:1045B0003AFB022852D1300023F041FB072332009E
:1045C000070029002000FFF7E1FD029B0600DB0445
:1045D0004CD51F233A0029002000FFF7ADFDF10064
:1045E000039B029E80011E433143F826F6003040B3
:1045F000C6E6C046A902000030BF0000E93D030046
:10460000A8DA0200623E03003B02000072B600001E
:1046100062B60000B43D0300B3020000A202000035
:104620001A0200008C3E0300350200001702000051
:10463000DE020000870200008A020000D9020000AA
:10464000DA0200007C140300002391E701238FE7C6
:10465000019B8DE703238BE7042389E72A003F4969
:104660003F4806F02FF9636A1860D9E66B460822C6
:104670009B5E002B07DA3E233A0029002000FFF75B
:104680005BFD4008ABE77C233A0029002000FFF7E0
:1046900053FD8008A3E7019B032B00D0C0E6314BFC
:1046A0009F4221D100270723290032682000FFF70D
:1046B0006DFD07232900726802902000FFF766FD58
:1046C0001F2329000190B2682000FFF735FD029BEF
:1046D00081013B431943019BD80051E680273F01EC
:1046E000E1E780277F01DEE71F4B9F42F6D0723B58
:1046F0009F42F6D01D4B9F4229D1C0270723290096
:1047000032682000FFF742FD0723726801902900FC
:104710002000FFF73BFDB2687F01137802900A3B4F
:104720000F2B0BD8072329002000FFF72FFD029B3A
:104730008001D900019B1943394321E68023DB0026
:104740001F43290007232000FFF7F6FCEFE7084B83
:104750009F4200D064E6D027D0E7C046893D0300E1
:10476000A8DA020091020000920200001702000085
:10477000DE020000F7B50D0007001100280023F04D
:1047800052FA0026040004281ED97C6A13491448F2
:1047900021F019FC206000242000FEBD6B7800028F
:1047A00018431FF0EDFC0235019026F0F5F80228C1
:1047B00011D1019B1B78722B0DD1019B5A783300CC
:1047C00030339A4207D10136A642E5D028780A381C
:1047D000C3B20F2BE2D97C6A0249D8E7FD3D030042
:1047E000A8DA0200303E0300F0B58BB006000800E6
:1047F00011001A0010AB1F78324B05AD01950093E4
:104800000523FFF7CBFA912000011FF035FC2E4B5A
:104810002E4A1860059B476043706B6804A90370BB
:10482000AB6804008370EB68C3702B7C30001360AE
:1048300008F01CFF0026264B03900C201E601FF082
:104840001BFC244B050003600FF0AAFAA8600FF0D0
:10485000A7FA214B214F1860214B3A001E70214BC3
:1048600039001E70204B68601E60280033000FF076
:1048700067F92000049A039922F0F2F9200007F06A
:10488000A7FF0400B04207D10FF060F80E4B1C6088
:10489000164B18680CF08AFC0122154B1A700FF0A9
:1048A00079FA0028FBD1134B94331860074B1B682F
:1048B000002B04D00C4B104819681DF029FD38005E
:1048C0000BB0F0BDB8CA0200182F0020EC01002088
:1048D0007001002004CB02006C0100200CAF02002C
:1048E000CC2D0020CA2D00207401002010000020D3
:1048F000CB2D0020842E00201C3F0300030000204D
:104900000C4910B50A78D4B2824210D10A4A107804
:10491000002802D0012008701470084A1278002A7A
:1049200006D0074A136820331360064B186810BD81
:104930009868FCE7CA2D0020CB2D0020CC2D00204C
:10494000700100206C01002073B501A908F08EFEF3
:10495000019B06001648502B17D8802040001FF0FE
:104960008BFB144D04002B00943318600023019A34
:104970009A420CD15B232000A35406F01BFB0022BB
:10498000904209D1943528600B480CF00FFCF15C83
:10499000E1540133ECE70132A35C9B2BFBD12100F6
:1049A000064822F021FA002394352B6076BDC046DC
:1049B0002B3F0300842E0020393F030010D002005B
:1049C000D2235B005843134AF0B51368000C8342AE
:1049D00006D9114C2368013323601368203B136010
:1049E0001F23050001270D4E9D431468A5420CD8D6
:1049F00003401A1D202A00D92022094C24680434BF
:104A0000934204D3074B1860F0BD3770EDE7E154D3
:104A10000133F5E77001002074010020CC2D002047
:104A20006C0100207801002000487047DCCB0200B8
:104A3000F0B5486887B00F0005F01AFA041E02DAD4
:104A400000200CF0B3FBBB68164A01939D186B1E47
:104A50009D41010002A822F051FB049E220000218A
:104A6000300025F045FF3868EDB2C3070AD43300A3
:104A70002200290021F08FF802A90B4808F06AF9FA
:104A800007B0F0BD43102000042C00D904200749D2
:104A9000019F00228F4200D0221A2900B2181FF075
:104AA000DCFEE9E792EBFFFFD4DE02006E140000AB
:104AB000F0B50C0087B0012203A9606805F096FBF1
:104AC000A3681449039A8B420DD1012604997642BA
:104AD0004C1E01911419049900200D00002D05D1E0
:104AE00021F0A7F80EE014000126F4E78027013D2D
:104AF000FF03B84208D308481B18581E8341D8B298
:104B000021F03AF807B0F0BD277800023843A41925
:104B1000E4E7C0466E14000092EBFFFF70B546005C
:104B20007508041C291C281C16F002FE002811D14F
:104B30001949281C16F0FCFD00280ED11649281C26
:104B400015F06EFE002808D11449154821F03BFAF3
:104B500002F050FA13480CF029FB002C10DA002E5A
:104B600006D0FF23DB05E3189C22D20593420AD826
:104B7000201C16F0F3FD012540000543280070BD00
:104B8000E30DDB05F0E704F0C1FB211C0500043058
:104B90001EF008FDF2E7C046FFFF7F7FC43F030021
:104BA000F4D90200DD3F0300F0B50D00002685B00A
:104BB000110028001C00320002230096FFF7BEF807
:104BC0000120B5422ED0854234D120680540E9B29B
:104BD000B14227D1032302001A40184203D11C4BD3
:104BE000016899421ED01B4B0340062B06D0002AB9
:104BF0000DD10268184B92699A4208D103A908F0B6
:104C000035FD00231A0003990AF0D4FC0AE00323BF
:104C100002001A40022A07D1FF22D20580189843C9
:104C2000FFF77CFF05B0F0BD05F022F9012340003D
:104C30001843F7E703A9206808F018FD050060682D
:104C4000039F05F015F93300020039002800DBE767
:104C500074CC0200070080FF11DC0000F8B51F00D3
:104C60000C4B15005B18013B197815F009FC002668
:104C70000400B74204D00321013015F001FC060006
:104C80002B1E03D0280025F087FE0300E01C8019AE
:104C9000C018F8BDF63F0300F0B58DB00A9214AA13
:104CA000177815AA127805000C000792DA0744D588
:104CB0005A100492002B5CDB002306932020079BF4
:104CC000139A1299FFF7CAFF23680590834204D212
:104CD0001FF0D2F9059B2860236000222E68059BF7
:104CE000F418631E1A70049A002A47D00A3F0993E9
:104CF00008930B97049F1299380015F047FC0B009E
:104D000004903033092901D90B9B5B18089A541E73
:104D10002370079B002B4DD0129B9F4231D3A6429C
:104D20002FD2099B1B1B032B05D1079B013C237032
:104D3000A64226D209940894DCE79A0712D1274AA2
:104D4000196891420ED1079A21000392139A029793
:104D50000192129A00920A9A20F0E4FE04002000C8
:104D60000DB0F0BD00232A6813700A9A2C681360F6
:104D7000F5E7049B5B4204932D239EE73023023C1E
:104D80002370139B002B05D0180025F005FE201A78
:104D9000864220D3069B002B04D0B44202D9069B46
:104DA000013C23702868059BC018001B0A9B013832
:104DB0001860D4E7A642E4D2129B9F42BBD2E0E740
:104DC000C2540133139AD25C002AF9D1069B040025
:104DD000002BE4D1E6E70023F4E7C04674CC0200E0
:104DE000134B10B5140001229C421CD0114B03221E
:104DF0009C4218D00023072818D10F4820400628CD
:104E00000ED0A20712D120680C4A904208D00C4A5A
:104E1000904205D00B4A904202D00B4A904205D1F5
:104E20000A00072021000CF0C9F90300180010BD8A
:104E300088AF020090AF0200070080FF10D0020090
:104E4000D4DE020010CD0200A0E5020010B504007F
:104E5000431C02D0024805F095FD024B1C6010BDBA
:104E6000AC2E0020802E0020014B024A9A6470472D
:104E7000842E0020AC2E0020044B88600B60044B75
:104E800008004B600023CB607047C0464CAF020067
:104E90001B45020070B50E0011490400002523F0E7
:104EA00013F97368AB420AD8012B03D120000D49D6
:104EB00023F00AF920000C4923F006F970BD002DFB
:104EC00003D02000094923F0FFF83300A90008337C
:104ED00001222000595804F0FFFE0135E1E7C046E9
:104EE0000397030006400300845403000A1A0300DA
:104EF00070B503000C0001281ED0022808D0002045
:104F0000834204D14B680E48002B00D10D4870BD80
:104F100001230D4D62685E1C013B9A4203D80120BB
:104F20006D002843F3E7B300E15802200BF0AAFB21
:104F3000401033002D18EDE7486840001843E6E7BD
:104F400090AF020088AF020008CD020070B50500E6
:104F50000E000C48002D0FD0AC1CA40020001FF048
:104F60008BF8094B45600360002E05D0020000233A
:104F7000083C0832A34200D170BDF158D15004332F
:104F8000F8E7C04608CD020010CD0200F0B50700DA
:104F90000E00140085B0142831D028D807282ED050
:104FA000122802D00025052826D1200004F07CFE1E
:104FB0002E49FBF749FF051E1ED073686268002169
:104FC0009818FFF7C3FF07003100736808379A008D
:104FD00005000831380025F06FFC21007068636817
:104FE000800038189A00083125F066FC04E00300C0
:104FF000193B0025042B1DD9280005B0F0BD200069
:1050000003A904F073FF051EF6D00398184D00287D
:10501000F2DD736800215843FFF798FF05002B006D
:105020003000083300930421039B726808301FF09E
:10503000FCF8E1E7100004F037FE0E4B426A9A429A
:1050400005D0200009491EF02EF8041E0CD02300C4
:105050003100626838000092083372680831FEF748
:105060008BFF054D0028C7D1044DC5E710CD0200C8
:1050700008CD0200794E000090AF020088AF020018
:1050800030B5040085B0042A2FD103230D004068F9
:105090001D4019421FD1164B0A689A421BD101AA22
:1050A000FEF7FAFE002802D112480CF073FA019BB9
:1050B00002982900C01AFFF749FF050021006B681C
:1050C00008319A00019B08309C00091925F0F4FB77
:1050D000280005B030BD0A0000230100206804F05C
:1050E000A1FF023080000559F2E70025F0E7C04635
:1050F00008E4020008400300F0B50C001100002293
:1051000085B01E00200001230092FEF717FE184D07
:10511000002C1ED03568AB0703D1164B2A689A4283
:1051200017D010201EF0A8FF0021040030680BF0FB
:1051300013FC00250427039003980BF06FFC061E58
:105140000AD128002100FFF701FF050020001EF012
:10515000C2FF280005B0F0BDAF4205D82000F9001D
:105160001EF0A8FF04007F00AB001E510135E3E7ED
:1051700008CD020010CD0200044B88600B60044B88
:1051800008004B600023CB607047C0464CAF020064
:10519000B14502000300054A08000A601A7A0A7144
:1051A0005B688B600023CB607047C04674CE020002
:1051B00010B504000C201EF05FFF034B03600223B8
:1051C0004460037210BDC046B0CE020010B504307A
:1051D00022F04FF9004810BD0CAF0200002803D0A8
:1051E000012808D00020704707224B6804489343E9
:1051F000F9D10448F7E74B68DB085B001843F2E796
:1052000090AF020088AF02000B6870B506000D0079
:10521000181D4968140009F06FFC031E02D0406895
:1052200000280FD1022E08D10948022C06D1696846
:10523000084820F0C1FE01F0DDFEA868012C00D175
:10524000586070BD022CFCD100225A60F9E7C046BC
:105250000CAF020050D8020070B504000D000B7AAC
:10526000164A9B0086B0995822F02EFF2000144960
:1052700022F02AFF134B02AA02932B7A0126137104
:105280006B68019304930023059302A81FF09AF919
:10529000051E05D120000C4922F016FF06B070BD96
:1052A000002E03D12000094922F00EFF012229001F
:1052B000200004F011FD0026E7E7C046ECCE020016
:1052C0003940030074CE02003C4003000A1A030078
:1052D000F0B513681400012287B00F680D0000922A
:1052E000D90802230600FEF729FD022E14D16868B2
:1052F000032302001A40184218D101682A4BC968DA
:10530000994213D12B68984206D00592686805A986
:105310001FF03BF9061E01D100253FE00122316854
:10532000381D09F0E9FB73684360EFE700210BF0DB
:1053300013FB039003980BF071FB0028ECD00021C5
:105340000BF00AFB05000BF069FB060028000BF0D0
:1053500065FB029028000BF061FB002E04D0029B3D
:10536000002B01D0002802D010480BF01FFF0122B3
:105370003100381D09F0C0FB029B4360DAE7A368E7
:10538000EE009E193168002907D0042905D00122BA
:10539000381D09F0B1FB7368436001356368AB42A7
:1053A000EDD8034807B0F0BD1D5600003F40030094
:1053B0000CAF020030B5002585B001A904000195AD
:1053C0001FF0E3F8A84203D109490A4822F01EFE63
:1053D000636802A9083B6360036802934368039310
:1053E000042328C00220FFF7B1FD05B030BDC04640
:1053F0006540030050D80200F7B50C0015001B28CB
:105400000CD000221F2807D1081D290009F074FBC9
:105410002B4A002800D12B4A1000FEBD03222B008E
:105420001340114225D1284922688A4221D1002BFC
:10543000F1D1296891421ED1009301936946200061
:105440001FF0A3F801A9070028001FF09EF806002E
:10545000002F31D00028DED03168386804F0B6FC67
:105460000028D8D07168786804F0B0FC0028E5D135
:10547000D1E7002BCFD1154B2A689A42CBD16A686D
:105480006368534007229343C5D10193200001A9CB
:105490001FF07BF8061E01D1094ABDE700223168E2
:1054A000281D09F029FB0028B5D04168706804F078
:1054B0008DFC0028EAD1AEE7014A0028ABD1ABE76A
:1054C00090AF020088AF020034CF0200F8CE020095
:1054D000F7B50B681C4A04000D00934203D05A68CC
:1054E0001A4922F0B7FE2000194922F0EDFD0023F1
:1054F00001270193280001A91FF047F8061E0CD1CF
:105500002000144922F0E0FD2B680F4A934203D09B
:105510002000114922F0D8FDF7BD002F03D1200053
:105520000E4922F0D1FD01222000316804F0D4FBA5
:105530000B49200022F0C8FD01222000716804F010
:10554000CBFB0027D6E7C046F8CE0200844003001C
:1055500088400300873D0300845403000A1A0300B7
:10556000071A030010B504000C201EF085FD034B44
:10557000036000234460037210BDC046B0CE020039
:1055800010B504000C201EF077FD034B03600123CF
:105590004460037210BDC046B0CE020010B50022B8
:1055A00004300C0009F0A8FA002805D121000348B6
:1055B00020F002FD01F01EFD406810BD50D8020031
:1055C00010B5024B08C021F03FFF10BDF8CE02001D
:1055D000F8B50C000700002160680BF0BDF90E4E15
:1055E0000500022F00D9A668606804F05BFD002862
:1055F00009D11FF011F8040028000BF00FFA011E6A
:1056000003D12000F8BD4010F3E70122201D09F06E
:1056100073FA4660F0E7C0460CAF0200F0B589B0FF
:105620000190002017001E000D001EF0F5FF019BE9
:10563000019A03600D4B04009A4203D104230279BE
:10564000134303712B003B430DD03368AA0039008C
:10565000B21805A80394049321F004FF681C05AA5E
:1056600003A9FFF735FE200009B0F0BD34CF0200DA
:1056700010B50C00002A03D11FF001F80A480EE013
:10568000042A0DD10022043009F036FA002805D191
:105690002100064820F090FC01F0ACFC406810BDF1
:1056A0001EF0E3FFEAE7C0460CAF020050D802004C
:1056B0000523020070B5094C094D20684343094891
:1056C0009B189B0018582B682260C0180F231940A4
:1056D00009012860FFF774F970BDC0467C01002005
:1056E000F001002070CF0200A839030000B50800C7
:1056F00006292ED814F0B0FE040A10161B2128002B
:105700009A18E223DB00D218107800BDC432920050
:10571000D05C8006800EF8E7C4329200D05AC004F4
:10572000400EF2E7C4329200D0580003F8E7C432CA
:1057300092009A1890780009E7E7C43292009A180C
:10574000D0780007000FE0E7C43292009A18D078B2
:10575000F1E7024B024A00201A60D6E71000002051
:10576000AB400300A83910B504000800062946D84C
:1057700014F072FE040A131E29333D00E221A21820
:10578000C9005218137010BD3F20C4329200115D41
:10579000034081430B431355F5E7C43291007F2248
:1057A00019481A400B5B9201034013430B53EAE77D
:1057B000C43291007F2208591A40144B520303400F
:1057C00013430B51DFE70F20C4329200A2189178E7
:1057D0001B0101400B439370D5E70F20C4329200A8
:1057E000A218D178034081430B43D370CBE70F203D
:1057F000C4329200A218D1781B010140F4E7044B97
:10580000044A1A60BFE7C0463FE0FFFFFF1FF0FFFA
:1058100010000020B6400300F0B585B003930723C5
:10582000D4B21A40013AD2B20F00042A02D929494F
:10583000294D0D609C4313020193002C21D1274B6D
:105840003C78C35C1B09DB43E31ADBB202930825F7
:10585000234B019A1B199E5C330076005BB2F6B2B3
:10586000002B33DA1A210320013DEDB2FFF720FFB0
:10587000002DF1D10134029BE4B29C42E7D13C708F
:105880001AE0E443174BE4B29F5C0825144B019ADD
:105890001B199E5C330076005BB2F6B2002B0EDA69
:1058A00005210220FFF704FF013DEDB2002DF1D1EB
:1058B0000134E4B2002CE8D1039805B0F0BD390002
:1058C0000120FFF7F5FE002FEAD0EDE706210420C6
:1058D000CAE7C04610000020C240030019070000BC
:1058E000414603009C4C0300F0B500228BB005003C
:1058F00001910F20FF2108AB644CDA710B00C43317
:105900009B00EB189A781609A65D024036013243D7
:105910009A70DA781607360FA65D82430640164362
:105920001209A75C32003F0102403A43DA700139A4
:10593000E4D2E223DB00EE5CB308F31ADBB205939A
:10594000534B1B68002B0BD0E222C4218120D200D4
:1059500089000001019BAA1869182818FDF7A6FA0A
:1059600000244823270004930394029481222B19D6
:1059700012019B181B78180006930723984322D026
:1059800008A9230007312800069AFFF745FF01996F
:105990000230C4B20239CBB20193019B002B73D009
:1059A0002B780493013EF6B2002E44D1E222002768
:1059B0002B19D2009B181E780397B308F31ADBB299
:1059C00005930297D2E7334B029A9C469A5C2300D8
:1059D000C4339B00EB18997809090A432E498A5C65
:1059E000039907926246DB78525C1907090F0A4354
:1059F00029491B098A5C2949C95D0B43079952183B
:105A00002549C95C01238918FF2A00DC031CC91839
:105A1000882309061B06C9180020090FFFF748FE56
:105A2000049B013BDBB20493002BBBD101990134F1
:105A3000E4B20139AFE7059B013BDBB20593002BD4
:105A400002D1069B002B16D12200C4329200535D76
:105A500002999B069B0ECB18DBB20293535B039912
:105A6000DB045B0ECB18DBB2039353591B035B0EB5
:105A7000FF18FFB27AE708A923002800069A073129
:105A8000FFF7CAFE040091E70BB0F0BDC54103006B
:105A9000EC010020914B03009D43030041450300AE
:105AA0000300074A0800D25C002A05D0054AD15CF1
:105AB0004843C011C0B27047034AD05CFBE7C04600
:105AC000ED44030066430300264203000300074A37
:105AD0000800D25C002A05D0054AD15C4843C011B9
